:020000040000FA
:10000000684A0020B1290000B1DD00009D290000F0
:100010009D2900009D2900009D2900009D290000C8
:100020000000000000000000000000001D2B000088
:100030009D29000000000000B52A00009D29000055
:10004000B12C0000B12C0000B12C0000B12C00003C
:10005000B12C0000B12C0000B12C0000B12C00002C
:10006000B12C0000B12C0000B12C0000B12C00001C
:10007000B12C0000B12C0000B12C0000B12C00000C
:10008000B12C0000B12C0000B12C0000B12C0000FC
:10009000B12C0000B12C0000B12C0000B12C0000EC
:1000A000B12C0000B12C0000B12C0000B12C0000DC
:1000B000B12C0000B12C0000B12C0000B12C0000CC
:1000C000B12C0000B12C0000B12C0000B12C0000BC
:1000D000B12C0000B12C0000B12C0000B12C0000AC
:1000E000B12C0000B12C0000B12C0000B12C00009C
:1000F000B12C0000B12C0000B12C0000B12C00008C
:10010000B12C0000B12C0000B12C0000B12C00007B
:10011000B12C0000B12C0000B12C0000B12C00006B
:10012000B12C0000B12C0000B12C0000B12C00005B
:10013000B12C0000B12C0000B12C0000B12C00004B
:10014000B12C0000B12C0000B12C0000B12C00003B
:10015000B12C000053B94AB9002908BF00281CBFC0
:100160004FF0FF314FF0FF3000F00CB8ADF1080C4C
:100170006DE904CE00F022F8DDF804E0DDE90223A9
:1001800004B07047704700BF10F8012B11F8013B15
:10019000012A28BF9A42F7D0D01A7047034611F8B7
:1001A000012B03F8012B002AF9D17047034613F8FD
:1001B000012B002AFBD1181A013870472DE9F047AE
:1001C00086468C460846089E154674461946002BFE
:1001D00040F0C1808542B2FA82F245D94AB1C2F1FB
:1001E000200300FA02FC954094402EFA03F343EA00
:1001F0000C0C4FEA154EA8B2230CBCFBFEF80EFB0C
:1002000018CC08FB00F943EA0C43994528D9EB18B0
:1002100008F1FF3704D2994502D9A8F102072B440F
:10022000A3EB0903A4B2B3FBFEFC0EFB1C330CFBD7
:1002300000F044EA0344A04214D92C190CF1FF3316
:1002400004D2A04202D9ACF102032C44241A43EA9E
:1002500007401EB1D440002334607360BDE8F087CE
:100260004746DDE76346F1E792BB431B01214FEAB6
:10027000154EAFB2200CB3FBFEFC0EFB1C330CFB87
:1002800007F840EA0343984561D9EB180CF1FF30B9
:1002900004D2984502D9ACF102002B44A3EB080329
:1002A000A4B2B3FBFEFC0EFB1C330CFB07F744EAC5
:1002B0000344A7424DD92C190CF1FF3304D2A742B5
:1002C00002D9ACF102032C44E41B43EA0040C0E72E
:1002D000C2F120039540944020FA03F12EFA03F373
:1002E0004FEA154E9040AFB20343B1FBFEFC0EFB4C
:1002F0001C10190C0CFB07F841EA0041884522D973
:1003000069180CF1FF3004D2884502D9ACF1020023
:100310002944A1EB08019BB2B1FBFEFC0EFB1C11B2
:100320000CFB07F743EA01439F420ED9EB180CF18F
:10033000FF3104D29F4202D9ACF102012B44DB1BF6
:1003400041EA004193E76046E3E76146F7E760462C
:10035000A4E76346B8E7834206D916B900210846E8
:100360007CE7C6E900E0F9E7B3FA83F78FB9834287
:1003700001D3724508D8BEEB020460EB03030120F1
:100380009C461EB9002169E73846FAE7C6E9004CE9
:10039000F8E7C7F1200CBB400EFA07F522FA0CF47F
:1003A0002EFA0CF1BA401C4320FA0CF3B8404FEA85
:1003B000144901431FFA84FEB3FBF9F809FB183016
:1003C0000B0C08FB0EFA43EA00439A4540D9E318A8
:1003D00008F1FF3004D29A4502D9A8F10200234463
:1003E000A3EB0A0389B2B3FBF9F809FB183308FB46
:1003F0000EFE41EA03418E452CD9611808F1FF3306
:1004000004D28E4502D9A8F10203214443EA0040F8
:10041000A1EB0E01A0FB02984145CE46434602D314
:1004200006D14D4504D20138B9EB020E68EB040346
:10043000002EA7D0B5EB0E0261EB030101FA0CFC14
:1004400022FA07F3F9404CEA0303C6E9003199E7C1
:100450004046C5E74346D9E770B511F1550F04464C
:100460000E4692B034DB6FF00102204B07AD1A70DC
:100470004FF0FF3299705A700268C3F803208288E7
:10048000A3F8072082795A720122194B1A70037857
:10049000032B25D8DFE803F0021E20221549284649
:1004A000FFF77CFE059563781E210493A378124A1A
:1004B0000393E3780AA80293237901936379009365
:1004C000A3790CF049F832460C480AA90CF07BFDE0
:1004D00012B070BD0A49E2E70A49E0E70A49DEE7DF
:1004E0000A212846094A0CF037F8DBE7C12A002028
:1004F000C02A00205C0F01007E0F0100A10F010047
:10050000630F01006A0F0100740F0100C818010099
:100510002DE9F043602300248DB0CDE90444ADF80B
:10052000123030233048ADF8143006940CF04BFDF7
:10053000204604F01DF8054600284CD107468046A9
:100540002A4EDFF8AC90494604A886F8008005F0F2
:1005500005F830B900214FF480400FF0F0FC05F0B1
:100560004DF83378E3B140F6FF23DFF888C0ADF8EB
:100570000830214B07AC0393BCE80F000FC4DCF834
:1005800000300122236002A90023009507A804F08F
:1005900051FC002146F267600FF0D1FC04F058FDD9
:1005A000042107A803F01AF84FF49173079C4FF445
:1005B000004CB4FBF3F2394640F2E73003FB12443F
:1005C0000A344FF47A720023E4FB0C01FFF7C2FDFA
:1005D0000FF0B5FCB7E7014608480CF0F4FC2046E4
:1005E0000DB0BDE8F08300BFBE0F0100C02A00209F
:1005F00059040000000A0100C12A0020DF0F010099
:100600002DE9F04F91B0009302F004030293C2F37E
:10061000C2030133840705460E46DDF86880039265
:10062000059340F0BB81041D30B1072909D86FF054
:100630001B0011B0BDE8F08F01F007063444C6F18D
:100640000806009B4FF000094FF0040A591E4FF0B6
:10065000FF334F460193CB465346CDF810900DB172
:10066000009A22600598002800F3E8809848009AD4
:10067000824203D397488242C0F0E080039AA4EB01
:10068000050E92074FEA9E0000F103810F2F00F242
:10069000B180002D00F0058107F140020DEB020C46
:1006A000019A0CF8200C0CF8102C049801300490DE
:1006B000E7E07A285DD84B280ED8472859D8292852
:1006C0002DD8252852D054D820287AD02338D0F1DC
:1006D000000B4BEB000B74E04C382E2849D8DFE8B8
:1006E00000F07048484848484848484848484B48FF
:1006F0004848484848484859484B4B595959704B05
:100700006D487048184B184848827F4B48484B4802
:100710007F0000204FF0000B4FF0040A38E0012268
:100720002A38C0B202FA00F010EA0E0F49D110F0D8
:10073000625C2FD110EA020B43D06046013C544466
:10074000B4FBFAF40AFB04F4002D61D0A3EB050C12
:10075000A444B4453FF66BAF002868D1042B47D1C1
:1007600058F8043B2360042304342AE0019A013A38
:1007700001924FF0000B24E011F8010C6C2834D1E9
:10078000002011F8023C83466C2BC5D14FF0080ABB
:100790005346D3E708F1070828F00708073424F088
:1007A0000704F8E802AB35B106982044B0423FF6A2
:1007B0003EAFC4E900AB4FF0000B08344FF0080A1D
:1007C000534611F8010F002878D0BBF1000F7FF4D9
:1007D00070AF2528F5D14FF0010B019B0133019338
:1007E0004FF0040AECE7584694E700208346A5E75B
:1007F000082B02D06FF015001BE708F1070828F05E
:100800000708F8E80223C4E9002308230834D8E7DE
:1008100068B9042B02D108F10408A4E7082BE9D138
:1008200008F1070828F0070808F10808EDE7059A1D
:10083000013A059258F8042B009210E7039A9007AA
:1008400020D54FF0010CA4EB050E4FEA9E00BEF53B
:10085000007FCFD20F2FCDD8F5B107F140020DEBBD
:10086000020E019AC0B20EF8200C0EF8102CBCF14A
:10087000000F3FF41AAF60F07F000EF8200C09F172
:1008800001090137C5F108024FF6DA7E04340692F9
:1008900097E74FF0000CDAE7BCF1000F01D001360A
:1008A000EFE7029802360028EBD10098CDE9063137
:1008B000FFF77CFCDDE906310644E2E7631BB3F594
:1008C000806F97D245B9A6F10804E018B1E600BFE1
:1008D0008004010030270100029A9B0828602B70D9
:1008E0009DF81030C2B1EB7085F80290B9F1000F9D
:1008F00005D0002208A8C5F1010C97420ED14FF097
:10090000000AC5F101030DF1200801930DF1300B30
:10091000574512D1601B8CE66B70E5E710F8013B80
:10092000190608D50CEB040EB64503F07F033FF61D
:100930007EAE04F8013B0132DFE7B9F1000F03D0CE
:1009400098F90020002A17DB029BD3B11AF80B207C
:1009500004F8012B0022019B18191044B0423FF605
:1009600066AE98F80000009904F8010B2046039247
:100970000FF0B0FC039A14440AF1010A08F10108CF
:10098000C6E798F8002055F822300093029B0098A3
:1009900045F82230FFF70AFC421CDCE76FF00D003F
:1009A00047E600BF2DE9F04F97B000AFD7F880B011
:1009B0003B62CBF3C0030446894690F802A0FA627A
:1009C000BB6141B9457800780AEB800020444D4571
:1009D00017D8A0EB0409E378FB61BAF1000F02D04D
:1009E0001BF0010F16D1FB6953BBFB6A1BB14946D3
:1009F00020463A6A98474D4628465C37BD46BDE8D2
:100A0000F08F461C3046FFF7D1FB0130304409F12E
:100A10000109DCE7626823787A62FA6A99007961F1
:100A200004EB8301002A40F001810E464FF00008DC
:100A30004D4601EB0A094E454CD101EB0A0610E088
:100A40001BF0020FD1D023789A007A61626804EB20
:100A500083017A62FA6A002A77D14D46904601EB0B
:100A60000A061BF0050F0CBF02230123FB62FB6982
:100A700006EB430A0BF00203BB625645BCD016F8E6
:100A8000021B16F8013C54F82390994B994502D368
:100A9000984B994536D3BB69002B40D0786A0CF04F
:100AA00069FA00283BD0E9468AB06A46924B536106
:100AB0007B6AC2E906314FF4007313848F4B42F80E
:100AC000103F00234FF412518D4801F0B9F8023D58
:100AD000CD46D2E716F8013BF96254F82300FFF740
:100AE00065FBD7F88430F96A01304BB1D7F888300C
:100AF00098453EBFD7F8843023F8180008F1010864
:100B0000054498E7BB6923B1786A0CF033FA0028F2
:100B1000C9D11BF0010F05D1FB6AED1AADE7BB6A25
:100B2000002BAAD04846FFF741FBD7F8843053B1D9
:100B3000D7F8883098453FBFD7F88420431C22F867
:100B4000183008F10108054497E7BAF1000F73D097
:100B50001BF0040673D0D046002607F14800524629
:100B60003B61B9620FF0B6FBB96A3B6901EB0A025F
:100B7000BA62FA69F9695200FA60BA6A02EB410294
:100B80003A610BF00202BA603A69B96A8A4258D1F6
:100B900062781BF0020F18BF00217A6208BF4FEA8B
:100BA0005801B2181BF0010FD2B240F09F801BF029
:100BB000040F14BF40460020BB616270A070E1705A
:100BC00020463A6A7969FB6A9847051EFFF614AF1A
:100BD000BB69414623707B6A3A6A6370FB6984F89B
:100BE00002A0E37007F14800FB6A9847B0F10008E3
:100BF000C0F2BA807B69A9EB0A01C91AFB683A6A9C
:100C0000C91AD7E90A0398470028C0F2AF804FF00D
:100C1000000BA84408EB000507F1380AB34571D36F
:100C200000213A6A0846FB6A9847E5E656464FF0C7
:100C3000000807F1380092E75646D04696E7B046DE
:100C400094E7BA6A12F8021B12F8015CBA6254F80F
:100C50002500274A904202D3264A90421ED3BA6901
:100C600032B1786A7B600CF085F97B6800288BD103
:100C7000BA6802BB08F1280207F1300C08F1010044
:100C8000944407F1580208F1020852FA80F00CF877
:100C9000101C5FFA88F800F8105C75E7BA693AB181
:100CA000786A7B600CF066F97B6800287FF46CAF93
:100CB0001BF0010F09D006F1280207F13000711C6A
:100CC000161806F8205CCEB25EE71BF0040F3FF466
:100CD0005BAF08F1280207F1300008F1010102EBD7
:100CE000000808F8105C5FFA81F84DE7002063E720
:100CF0008004010030270100FF0F01000400000103
:100D00003C0901001BF80A3054F8239087F837306B
:100D1000D7F884302BB3D7F888309B4521D2D7F849
:100D2000843033F81B8001213A6AFB6A07F13700EF
:100D3000984700281ADB0544B8F1000F06D1484651
:100D4000FFF734FA00F101081FFA88F841464846D7
:100D50003A6AFB6A9847002808DB05440BF1010B4F
:100D60005CE74FF00008DEE7454645E6054643E60A
:100D7000014B1860704700BF3801002080B5054660
:100D80000E461746984607F0C9FF03460FF06EFB64
:100D90000446DFF81890424649F80030394630469C
:100DA000A84754F8090001F06FFE00BF08000000DA
:100DB0002DE9F047058B04462807904611D40229F7
:100DC00005F0070540F0CC8020460CF082FB78B19E
:100DD0000138218B042811D8DFE800F0C2106D859E
:100DE000950001290CBF45F0100545F0200525832D
:100DF00088F31188BFF36F8FBDE8F08701F0070A11
:100E0000AA4500F0A5800027B9463E46A368002BFE
:100E100000F0BC8041F00801218388F31188BFF302
:100E20006F8FA168002900F0BA800D68002900F0DA
:100E3000B680334652462046D1F80480C047002D84
:100E400076D02B6829461D46F0E701F007035A1FAC
:100E5000012A1BD8002221F00701062B276889B23E
:100E6000C4E9002209D13B4603E0628B0132628370
:100E70001B68002BF9D141F00201204621830CF0C0
:100E800028FB00287AD041F0200176E0042B0AD11B
:100E900021F0070189B2204621830CF01AFB10B122
:100EA00041F020012183218B01F0070AAA454FD090
:100EB0000027B946AAE7236921F0070141F006019E
:100EC000062DD3F8009021832DD1B9F1000F3FD02A
:100ED00041F00801218388F31188BFF36F8F20460A
:100EE0003949C84729E021F00701236941F004018D
:100EF00089B2042DD3F804902183E6D000274FF067
:100F0000040A3E4682E721F00701236941F005010A
:100F100089B2052DD3F808902183D6D000274FF051
:100F2000050A3E4672E700274FF0060A3E466DE787
:100F30002B4687E7B9F1000FD1D1EFF311882023B9
:100F400083F31288BFF36F8F238B23F0080323836F
:100F5000258BEA062ED525F01003238305F007051F
:100F60006669218B002EBFF670AF00232768C4E9A5
:100F7000003321F0070141F001012183218B4FF063
:100F8000000901F0070AAA457FF440AF002F9CD06A
:100F900041F00801218388F31188BFF36F8F002F80
:100FA000C8D03D6839463346524620460CF0BDFA5B
:100FB0002F46F4E7AB067FF51BAF25F02003238314
:100FC00005F0070500E700BF57D5000010B530B9A0
:100FD0000B480C490CF088FB6FF0150010BD8368BE
:100FE00033B9074808490CF07FFB6FF00400F5E7C0
:100FF0001B6813B1BDE8104018471846EEE700BF64
:101000004C090100B3100100C410010010B530B943
:101010000B480C490CF068FB6FF0150010BD83689D
:1010200033B9074808490CF05FFB6FF00400F5E79F
:101030005B6813B1BDE8104018471846EEE700BFE3
:101040004C090100B3100100C410010070B508B1D3
:1010500001B132B90B480C490CF046FB6FF015009A
:1010600070BD84680CB1E56835B9064807490CF0D5
:101070003BFB6FF00400F3E741F8040BE368BDE8C5
:10108000704018474C090100E2100100C410010033
:1010900010B5044630B9104810490CF025FB6FF02C
:1010A000150010BD006830B90B480D490CF01CFB51
:1010B0006FF00100F5E783680BB11B6933B906488F
:1010C00008490CF011FB6FF00400EAE761689847EB
:1010D0000028E6D12060E4E74C0901000E11010070
:1010E0001F110100C410010070B51346044630B949
:1010F000104811490CF0F8FA6FF0150070BD006847
:1011000030B90C480D490CF0EFFA6FF00100F5E72B
:1011100082680AB1956835B9064809490CF0E4FAC5
:101120006FF00400EAE70A46AC466168BDE870402B
:10113000604700BF4C0901000E1101001F110100A2
:10114000C4100100034A13680BB9526813600020F1
:10115000704700BF3C01002030B50C460E4985B0F9
:101160000291D0F8D4110546CDE9003100F1F0012B
:101170004FF0FF33204606F0B3FA50B9012384F84C
:101180006C30D5F8D03123B1204605B0BDE83040F1
:10119000184705B030BD00BFE1D7000038B50C4698
:1011A000114605460CF01EFB034638B92846044993
:1011B0000CF018FB03460020236038BD0120FBE73C
:1011C0000F2601002DE9F04F01238146056946688D
:1011D00091B005F56B77D7E8EF2F002A03D1C7E868
:1011E000E13F0029F7D10CBF1A46002240F0BD8034
:1011F000B368B16A05F5F8781C1F10460CF079FB4E
:1012000084427BD8013A00F0AA80B2FA82F24FF011
:101210000044D44072682046073222F00302C5F829
:101220003C22B16A0CF065FBC5F84002B36A404647
:101230006343033323F0030302EB4302230103EB75
:101240004403093323F0030303EBC403C5F834223A
:101250001A440832C5F830227368C5F83842C5F818
:101260002C32434BC5E9AD63316800F0F3F9044615
:10127000002841D1D9F810B0D9F804A0D9F800302D
:101280000BF53479CDE9060005934846DAE90734D1
:10129000012B08BF103C0EF079FDDAF82400354927
:1012A00005AB009301EB8021234648464FF4806252
:1012B00007F048F92021DAF824302F4A0DEB01001D
:1012C0000BF04AF908A9484607F0ECF92B490BF551
:1012D00030700EF014FDDAE9050183685C684CB1EA
:1012E0005B46274AA047044630B9DAE9050183681E
:1012F0001B692BB96FF05704002129E001327CE70C
:101300000122984704460028F6D11E4B2846C5F80E
:10131000D0311D4BC5F8D4311C4B0393D5F8403266
:101320000293D5F83C32CDE9008305F51173B26A1A
:10133000D5F8A81300F056F904460028DCD105F1D1
:10134000F00006F073FA0028C5F8B0030ADB0221AA
:1013500038460CF07BFA204611B0BDE8F08F6FF0F4
:101360000B04C9E76FF01504C6E76FF07704F2E7E6
:1013700037D80000782D0020441101001DD800004E
:1013800011D8000091130000C9D900007DD80000D9
:1013900013B5044640B100230122CDE90032074BCA
:1013A000D0E9091206F070F9236F1B6823B1606F52
:1013B00002B0BDE81040184702B010BD0F26010072
:1013C00013B504460846216901F56B71D1E8AF1FDA
:1013D000022910D193B1A0B10121CDE9003113460A
:1013E000D0E9091206F050F9074B984208BF6FF098
:1013F0000B0002B010BD6FF00F00FAE76FF04C0069
:10140000F7E76FF00100F4E72EF8FFFF2DE9F3474F
:1014100089461546066906F56B73D3E8AF3F022B84
:1014200064D1136823B96FF0150002B0BDE8F087EE
:101430001B78002BF7D0D6F8A8A3BAF1000F36D14D
:1014400006F5EC774FF0FF324FF0FF33384606F0E9
:10145000C5FD30462A6801A9FFF7A0FE019C804621
:101460001CB938460CF0F0F9DDE705F108032367F5
:10147000AB6984F86CA06367646460B138460CF0B3
:10148000E3F921463046A36E2A68FFF765FE002087
:10149000C9F80040C9E71F22296804F148000EF08E
:1014A0006AFF384684F867800CF0CEF9EFE73046E3
:1014B00010490CF097F904460028B4D0002705F134
:1014C00008030367AB6980F86C70436740641F22B0
:1014D000296848300EF04FFF22460121304684F83B
:1014E000677000F061F80028D1D09CE76FF00F0022
:1014F0009BE700BF0F26010010B50C46006900F500
:101500006B73D3E8AF3F022B0FD189B10A4900F5C5
:1015100030700EF020FC20460DF020FF78220021D4
:1015200020460EF0FEFE002010BD6FF00F00FBE71E
:101530006FF00100F8E700BFE81100202DE9F04F3F
:1015400005460E4690460027D0F8C4A085B0AAF5FF
:10155000BE7421463046FEF717FEE0B9114BA4F1E8
:10156000480B0293DAF810303246CDE90083294661
:101570004FF0FF335846AAF5E27906F0B1F860B9AA
:101580007823012203FB079383F86C20DAF80C30F0
:101590000BB158469847783417B105B0BDE8F08FC5
:1015A0000127D6E7F7D900001FB5144690B18AB1DC
:1015B000012912D10A4B00F1F0010293D0F8D43185
:1015C000483201934FF0FF332046009306F088F82D
:1015D00004B010BD6FF01500FAE70020F8E700BF77
:1015E000F7D900002DE9F04387B00E46DDE90E8102
:1015F0001446DDE910251F4630B329B3DFF850C08B
:1016000000F1F009002D08BF65469EB9CDE90344FD
:1016100000F5E274204605960EF038F903ABCDE9EB
:1016200000432A463B464146484606F079F907B052
:10163000BDE8F083002241460E9248462A4607B094
:10164000BDE8F04306F0C2BA6FF01500EFE700BF47
:101650003D150000F0B504462B4A87B004AB0E469A
:1016600092E8030083E80300002C49D0184605F0F7
:1016700011FF0546B0B94FF0FF33E16C04F1540798
:10168000A163CDE9010000933846236D04F13802CF
:101690000DF016FBA06C0CF0DDF9C4F8BC0020B90D
:1016A0006FF00B05284607B0F0BDA06C0CF0D2F926
:1016B000C4F8C0000028F3D0236CD4F8BC10C4F8E0
:1016C00090300423C4F89430C4F8AC300223E362B1
:1016D0000E4BB4F84820C4F88C10616C236204F1FE
:1016E0008C03C4F8A070A4F89820C4F8B870C4F8AB
:1016F000A810A4F8B020C4F8A400A6612363D1E721
:101700006FF01505CEE700BF140A0100B40A01000E
:101710002DE9F047044607464FF00109DFF85080F5
:1017200014B93846BDE8F08794FAA4F5B5FA85F502
:1017300009FA05F32E0108EB05156FEA030A24EAFE
:1017400003042B7B002BEBD058F806301B694BB9F8
:101750004644736804222846196807EA0A070CF011
:10176000E1F9DDE7284698470028D9D1F0E700BF26
:10177000A409010030B5002289B00F490F480EF0CE
:10178000B3FC002200230024CDE906230E230C4DD8
:10179000CDE903344FF440722846CDE90144094BAA
:1017A0000949009406F0F4FF0849284606F07AFF3C
:1017B000204609B030BD00BFD1170000980D0020B1
:1017C000D8080020E51A00007831002050110100EF
:1017D000014806F0FDBC00BF540400202DE9F0478D
:1017E000804621480F460CF081F90646002833D088
:1017F00000252846BDE8F087237B83B12368DB689A
:101800000BB120469847636883F8069023681B69EC
:10181000D3B963680422204619680CF083F90136B5
:1018200010345445E8D3B8F1000FE2D0002DDFD0DA
:101830002846FFF76DFF0546002FF7D000214FF433
:10184000A4700EF07CFBF1E7204698470028E0D01A
:1018500009FA06F31D43E2E705464FF00109034C80
:10186000DFF80CA0DDE700BF20120020A409010072
:10187000B4090100014B53F820007047F40A01003D
:1018800008B5034608462BB1044A136000F06EFC0D
:10189000002008BD6FF01500FBE700BF68010020C5
:1018A00010B5044C237813B9034806F091FC0123CA
:1018B000237010BDCB2A00205404002010B504462C
:1018C00009480CF013F93CB1084BD3E8EF1F01397C
:1018D000C3E8E21F002AF8D105480EF011FCBDE86C
:1018E0001040044806F074BC181200201C1200209E
:1018F000980D00205404002000200146034BD3E83B
:10190000EF0FC3E8E21F002AF9D170471812002038
:1019100070B5FFF7F1FF0546074C084EB44200D3FF
:1019200070BD63685B792BB123685B6813B129468E
:10193000204698471034F1E7A4090100B4090100DA
:1019400010B5044C044920460BF05CFC034B1C60B2
:1019500010BD00BF84030020E00A01001012002027
:1019600000230D4A10B513700C4A4FF40041136068
:101970000B4A0C481360FFF783FFFFF7E1FF0A4BA8
:101980000A4918468B4200D310BD1A1A5C6812111E
:10199000013222711033F5E7CC2A00201812002002
:1019A0001C120020E9DA0000A4090100B4090100BA
:1019B00001460022002301480BF045BC84030020AF
:1019C00001480BF0DEBC00BF84030020024B01463F
:1019D00018680BF02ABD00BF1012002001480BF060
:1019E0005FBD00BF8403002070B5274B1878002826
:1019F00049D0FFF7E5FF0546002841D1234B244C91
:101A00001B68002B19DD0EF027FB4FF47A72A0FB48
:101A1000020302FB0131C30B43EA4143D4E9002036
:101A20009B1A40F2E9324FEAD13161EB0001934257
:101A300071F1000101D3FFF76BFFD4E9003213F518
:101A40007A7342F10002C4E90032BDE87040FFF74A
:101A5000C5BF63685B7923B12368294620461B68AC
:101A600098471034B442F4D32846FFF7AFFF094B30
:101A7000D3E8EF1F0139C3E8E21F002ABED0F7E721
:101A8000054C064EEEE770BDCB2A00201812002050
:101A9000900D00201C120020A4090100B4090100CF
:101AA00070B50D4D297861B90120FFF797FE0B4CF9
:101AB0000B4EB44206D3FFF797FF0028FBD101235A
:101AC0002B7070BD63685B791BB1236820469B68EF
:101AD00098471034EDE700BFCC2A0020A40901008C
:101AE000B409010000212DE9F0470846FFF776FE12
:101AF000044658B340F267684FF000090EF0B6FC98
:101B00001B4B1C4A1B58136033B11B4B1B68092B22
:101B100002DD1A4806F05CFB0025194FDFF85CA0D7
:101B200044B12046FFF7F4FD044618B94FF0FF38E2
:101B30004FF0FF39FFF758FF064628B9B5B94246BE
:101B40004B46504606F07EFB3546E9E74FF0FF383E
:101B50004FF0FF39D2E72B689B691BB10022284662
:101B6000114698471035BD42F5D3E8E7054DFAE731
:101B700008000000141200201C1200205404002051
:101B8000B4090100A409010013B518480BF0AEFF19
:101B9000174B1B7873B1EFF31184202383F3128862
:101BA000BFF36F8FFFF720FF84F31188BFF36F8FB0
:101BB00002B010BD0F4B1B68002BF9D050B90022AA
:101BC00000230D48CDE900234FF40042002307F025
:101BD000BFFBEDE70928EBD107480EF091FA074863
:101BE00002B0BDE8104006F0F3BA00BF1C1200209E
:101BF000CC2A002014120020980D0020540400204C
:101C000010B5064B04461B6898472146A06004485F
:101C10000BF098FBBDE81040FFF7B6BF680100204D
:101C200084030020044A054B9B1AB1EBD30F34BF49
:101C300052F8310000207047F4080100A4090100A7
:101C40002DE9F04F8FB0C1F34A2804AF0D469146FD
:101C5000B8607B600C0DB8F1000F63D000264FF028
:101C6000040B4FF00A0A07F11403C7F80C80C7E908
:101C700007667E620193CDF808B0CDF800A007F1A9
:101C80001C0332464846F968FEF78CFEB0F5006F3B
:101C900003461CD36C468AB0D9F8041004AB26481E
:101CA0001A46C3E9050140F2FF71D9614FF4007192
:101CB0001984224B42F8103F4FF41251334620480A
:101CC000FFF7BEFFA5462C37BD46BDE8F08FC0F339
:101CD0000A0804F11700184420F0070080083B6050
:101CE000FFF766FE68F35325044690B13B6800F1A8
:101CF0001001C7E9083607F11403F961CDE900A323
:101D0000CDF808B048460F4AF96807F11C03FEF702
:101D100049FE68F353252A4620467B68B9680BF0D4
:101D200021FFD0E704F1170020F007008008FFF73B
:101D30003FFE0446EDE700BF65110100040000010D
:101D40005409010037DB00002DE9F04F87B004464D
:101D5000DDE9105ADDE91279934698460391BFB147
:101D60003B46524610210020CDF80090CDF814904B
:101D7000FEF746FCB0F5006F06460AD340F2FF734B
:101D80000221174A174807B0BDE8F04F0BF043BFD8
:101D90003E4605F11700304420F007008008FFF7A9
:101DA00007FE04F007040BF0070BE40044EA8B1471
:101DB00044EA462444EA0554054640B13FB13B4657
:101DC00052463146CDF800901030FEF719FC4346DC
:101DD00022462846039907B0BDE8F04F0BF0C2BE7B
:101DE000A411010054090100406820B1034BC01A3E
:101DF00040F3CF0070474FF0FF307047F408010008
:101E00000EB403B503AB53F8042B01460448019309
:101E100001F06EF902B05DF804EB03B0704700BF4B
:101E200079DC0000CA0605D48B064CBF0249034981
:101E3000FFF7E6BF704700BF0E2601000D26010028
:101E40002DE9F04F89B09B46149B9DF84CA006935A
:101E5000159B04460593169B0D469046179E0493CA
:101E6000BAF1000F00F09D8006F4807307930BF029
:101E700057FE06F00209024600283ED0204691494E
:101E8000FFF7BEFF0746B9F1000F08D016F0440F68
:101E900035D12A4620468C49FFF7B2FF074406F0A9
:101EA000010353B1894B204653F82A20884B8949B6
:101EB000002A08BF1A46FFF7A3FF06F48073002B21
:101EC00049D006F00803002B63D1B8F1000F66D0AB
:101ED000424620468049FFF793FF0546069B3D4456
:101EE000002B6DD1049B002B73D1F30700F1E4802C
:101EF00031462046FFF796FFD8E00746C3E7774B09
:101F000018680028CAD0764B4FF47A791B684FF0D6
:101F10003C0CB5FBF3F5B5FBF0F14FF4616300FB4E
:101F2000115509FB05F5B1FBF3F2B5FBF0FE03FB20
:101F3000121100FB1E55B1FBFCF309FB05F5B5FBC7
:101F4000F0F50CFB131120460091CDE901E5654940
:101F5000FFF756FFA2E706F00803EBB1624B2046FD
:101F600053F82A206149FFF74BFF0546B8F1000FEF
:101F700005D0424620465849FFF742FF0544BBF1D1
:101F8000000FABD05A4620465949FFF739FF0544A8
:101F9000A4E74FF0000BE1E706F00805E6E7454649
:101FA0009CE7BBF1010F069B06D1002B64D1049B7B
:101FB000002B7BD000250CE0002BF8D04D485CE0D6
:101FC0004D48069B22464D490AF0A3FF049B002B77
:101FD00068D0DFF82C81DFF82C91049F3146102F58
:101FE000204628BF10274FF0000BFFF71BFF5D4571
:101FF00045DC059B494620461A78FFF701FF4FF064
:10200000010B1BF0070F03D141462046FFF7F8FEF6
:102010005F453BD9059B4946204613F80B20FFF747
:10202000EFFE0BF1010BBBF1100FEAD14FF0000BEB
:1020300020463549FFF7E4FE5A46059B20469A5C48
:10204000A2F120015F2928BF2E223049FFF7D8FED8
:102050000BF1010BBBF1100F1DD01BF0070F03D1CB
:1020600041462046FFF7CCFE5F455A46E5D841463B
:102070002046FFF7C5FEEBE71F485546A1E741465E
:102080002046FFF7BDFE0BF1010BB0E720462049CB
:10209000FFF7B6FEC5E7059B3B440593049BDB1B9E
:1020A00004939AD1BAF1000F7FF41FAF204609B014
:1020B000BDE8F04F0BF0D3BD2046054A0549FFF7B8
:1020C0009FFE15E7E1110100E5110100040B01007D
:1020D000DC110100971A01000A12010028120020E9
:1020E00024120020EE110100180B01000E12010055
:1020F00014120100A7DC000079DC0000F1300000C0
:10210000D9250100191201001F120100211201003E
:10211000D725010042F20F7373B58B4228BF0B46DF
:1021200005680446052168460D4A0AF015FA064678
:10213000636828460B225B680A490BF082FD6368DE
:102140003246694628465B680BF07BFD63681B22BC
:1021500028465B6804490BF074FD02B070BD00BFF7
:102160006B1801004012010024120100002101231C
:10217000064A904206D8064A01B901231360054B6E
:1021800018607047012140085B00F2E740420F00F1
:102190002412002028120020F8B50D460446064FF0
:1021A0004618B44201D12846F8BD14F8011BBB689B
:1021B00001485B689847F4E7D8050100014B0360CC
:1021C00000207047600B010008B504480AF0FBFED0
:1021D000BDE8084002480AF0F6BE00BF86120100C2
:1021E000BB120100014807F091BC00BF600B010069
:1021F00038B5044618B90F4B0F485B6898476168BB
:10220000B1F5683F10D0B1F5680F0DD00B4DA94264
:102210000AD011F46861206807D0014608480DF023
:10222000EAFB00232360656038BD14220EF079F8C4
:10223000F9E700BF0C030020E91201002C5F5CA944
:102240005817002008B560B34368B3F5683F0ED057
:10225000B3F5680F18D0144A934220D000684FF0AD
:10226000FF324FF0FF3305F0B9FE58B115E00122FF
:102270000368D3E8EF1F002903D1C3E8E02F00284B
:10228000F7D10AD1002008BD0368084A1B7803F57E
:10229000807352F82330002BF4D00548F3E705484B
:1022A000F1E76FF4E040EEE72C5F5CA9000003501B
:1022B000E98FFFFFEA8FFFFF08B520B34368B3F54E
:1022C000683F09D0B3F5680F13D0114A93421DD06F
:1022D000006805F0FBFE14E000220368D3E8EF1F5E
:1022E000012903D1C3E8E02F0028F7D109D009481C
:1022F00008BD00210368084A1B7803F5807342F883
:1023000023100020F4E76FF4E040F1E70348EFE723
:102310002C5F5CA9E98FFFFF00000350EA8FFFFFED
:1023200010B5044618B91D4B1D485B689847636893
:10233000B3F5683F2FD0B3F5680F2CD0194A9342FC
:1023400019D1236803BB4FF0FF324FF0FF33214612
:10235000154805F015FE08B923681BB90F4B134843
:102360005B6898471422002120680DF0DAFF4FF4D3
:102370006863636008E0B3F5683F0DD83A2B03D07B
:1023800040F6BA629342DED120680DF07FFB6368AD
:1023900043F03A03636010BD054AF3E70C030020E5
:1023A000E91201002C5F5CA9581700200F130100EF
:1023B0003A00003A08B506494023142205480DF0BA
:1023C0000CFBBDE808400449044807F063BC00BFAB
:1023D0005812002058170020680B01007C0B0100E8
:1023E00008B50348034A0021121A0BF0D9FC08BDB6
:1023F00020050020782D0020074808B5074A084925
:10240000121A0BF0CFFCBDE808400648064A0749FF
:10241000121A0BF0C7BC00BF000000201C050020F2
:1024200030270100000000200000002030270100BC
:102430002DE9F04706460C4600AF002936D0D1E919
:102440000012E9468AB06D46A3684FF0050AA84617
:102450001F48C5E90723C5E9050148F810AF002367
:1024600042464FF421511B48FFF7EAFBD4E903121F
:10247000CD466369AD461848C5E90723C5E905019E
:10248000C5F810A0002342464FF421511148FFF730
:10249000D7FBCD46E3690121104A0E480BF0BBFB88
:1024A000A36901210E4A0B480BF0B5FB012E07D1A1
:1024B000EFF305830B4A31460648103B0BF0ABFBAC
:1024C0002146304605F0A8FBBD46BDE8F08700BFB9
:1024D0003C1301008C0901006B1301009A130100E9
:1024E000A9130100D713010030BFFFF7FDBF00BFE4
:1024F0002DE9F04105460B4EDFF82C80324606EB05
:102500000807CC1B204609490DF0E4FEA0194246FD
:102510000021083C0DF005FFC5F8A84007F10800B0
:10252000BDE8F0810000000004000000F80901008F
:10253000054B5A699B689A421FBF044A536843F08F
:1025400080535360704700BF181A002000ED00E070
:1025500070B52A4C06460D4629482A490BF02FFC37
:10256000A36ADB0647D5264827490BF028FC112033
:10257000A36A1C0704D5224824490BF020FC122032
:102580001E4CA36A990712D521491D480BF017FC70
:10259000636BA26A120609D501211E4A18480BF086
:1025A0003AFB1EB1A36A23F08003A3621320134CED
:1025B000A36ADE0704D5124817490BF000FC14206B
:1025C000A36A9C0604D50E4814490BF0F8FB1520AD
:1025D0000A4B9A6AD10658BF9A6A9A6A920642BF13
:1025E0005A6A22F400525A629A6A42F0FF029A62D0
:1025F00000232B7070BD1020BAE700BF00ED00E093
:102600008C090100EA1301000014010033140100D9
:10261000461401005E1401007414010093140100BB
:1026200010B5244C244925480BF0C9FBA36A990135
:102630003ED5224822490BF0C2FB1E20A36ADA01D4
:1026400004D51E481F490BF0BAFB1F20194CA36A82
:10265000DB0204D519481C490BF0B1FB0220A36A28
:102660001C0304D5154819490BF0A9FB2120114C76
:10267000A36A590304D5114815490BF0A0FB222089
:10268000A36A9A0304D50D4812490BF098FB232046
:10269000084CA36ADB0304D508480F490BF08FFBF5
:1026A0002420A36A6FEA03436FEA1343A36210BDB9
:1026B0001D20C3E700ED00E0C21401008C090100F9
:1026C000DA140100ED1401000715010031150100B5
:1026D0004F150100741501008E15010070B5294CCD
:1026E00006460D46284829490BF069FBA36AD90420
:1026F0003CD5254826490BF062FB1720A36A1A0532
:1027000004D5214823490BF05AFB18201D4CA36A1D
:102710009B0512D51C4820490BF051FBA36BA26A04
:10272000100409D501211D4A17480BF074FA1EB197
:10273000A36A23F40043A3621920124CA36A59052B
:1027400004D5114816490BF03AFB1A20A36ADA05A2
:102750000ED50D4813490BF032FB1B20094A936A32
:1027600043F47F43936200232B7070BD1620C5E7AE
:10277000A36A9B04F2D504480B490BF020FB1C20F4
:10278000ECE700BF00ED00E08C090100B915010085
:10279000CF15010033140100E0150100F915010007
:1027A0000E16010029160100931401002DE9F041D5
:1027B0008AB0654B0446D3F80480002600AFC8F306
:1027C000080586F31188BFF36F8F02F07F43B3F1E2
:1027D0007F4F07D102F00C03082B12D15B495C48F4
:1027E0000BF0EDFA002634460023FB71EB1E092B9B
:1027F00000F28980DFE803F00A7F827B8787878782
:10280000878510074CBF0C460126EDE7514950481B
:102810000BF0D5FA00234C4DFB71EB6A9A0705D5F6
:102820004D494B480BF0CBFA002331E0EB6A002B0B
:1028300001DA4A49F5E7EB6A5B00F5D548494448B7
:102840000BF0BDFA6B69A26943F480736B61BFF34F
:102850004F8FBFF36F8F6B6932F8022C23F48073B4
:102860006B61BFF34F8FBFF36F8F4DF602739A42C8
:1028700007D0AB6ADBB26BB30120F91DFFF768FE2E
:1028800037E023680121374A31480BF0C4F9236847
:10289000FA79DAB907F1080504F1200C2A46206814
:1028A0006168083403C264451546F7D17A6A002E80
:1028B00045D0C2F3080121B96FEA52226FEA4222E1
:1028C0007A62184607F10801FFF7B2FD2837BD46C6
:1028D000BDE8F081AB6A13F47F4F04D00120F91DED
:1028E000FFF7FCFE05E0AB6AB3F5803F9CD3FFF732
:1028F00097FE0346CCE70020F91DBFE70020F91D35
:10290000EEE719498DE7194A18F4F87FE8468AB0CE
:10291000174B18BF13466A461649103DC2E9051306
:102920004FF400731384144BD56142F8103F002319
:102930004FF411510648FFF783F9C54674E722F4B6
:10294000FF7222F00102BBE700ED00E06F1601000C
:102950008C0901009A160100B1160100D21601007F
:10296000E0160100FF1601001B17010056160100BA
:10297000411601003F17010004000001064B5A698F
:1029800042F010025A615A6942F480625A615A69EF
:1029900022F008025A61704700ED00E0EFF3088072
:1029A000EFF3098101B57246FFF700FF01BD00BFDB
:1029B000002080F31488BFF36F8F002080F30A8813
:1029C00080F30B88104880F3088800200F490870B6
:1029D00004F00CF800200E490860BFF34F8F00F0A0
:1029E0002DF8202080F311880A484FF40061401828
:1029F00080F30988EFF314800221084380F31488E0
:102A0000BFF36F8F00F0F0F8684A0020732D0020AC
:102A100094ED00E028390020002318460649D1F83B
:102A20009020C2F30722934200DB7047C1F8983030
:102A3000C1F8A0000133F6E700ED00E010B572B672
:102A4000002484F31388FFF7E7FF23464FF0FF309D
:102A50000C4A03F120010133102B42F82100F8D178
:102A600000234FF0FF30074A03F160010133102BC0
:102A700042F82100F8D162B6BFF34F8FBFF36F8FDA
:102A800010BD00BF00E100E0084B9B6883420BD102
:102A9000EFF3058343B1064B5A6842F080525A6007
:102AA0005A6A22F400425A6206F03EB9181A00200F
:102AB00000ED00E016498A684FF030001044EFF353
:102AC000098C80E8F01F202080F31288BFF36F8FFD
:102AD000104F4FF000664A698A603E60D2F8A80045
:102AE0000D4C2060D2F8AC000023C2F8AC3080F36B
:102AF000118802F1300090E8F01F8CF3098802F190
:102B0000000004B50BF063F9BDE804407047000015
:102B1000181A002004ED00E0741700201EF0040FC6
:102B20000CBFEFF30880EFF30980816911F8021CF4
:102B30000229FFD001B572460BF036F901BD00BF86
:102B400040B2002807DB01234109034A00F01F00BF
:102B5000834042F82130704700E100E040B2002895
:102B60000CDB01220649430900F01F00824020339C
:102B700041F82320BFF34F8FBFF36F8F704700BF23
:102B800000E100E0054B420953F82220012300F048
:102B90001F0003FA00F01040704700BF00E100E0A2
:102BA00040B2002801F10101ACBF00F16040064BCA
:102BB0004FEA4111C9B2ABBF00F5614000F00F0010
:102BC00080F800131954704714ED00E0044B054AD7
:102BD00023F07F039360BFF34F8FBFF36F8F704776
:102BE0000000000000ED00E008B5FFF7EFFF074A26
:102BF000D2F8883023F47003C2F88830FFF7F0FB76
:102C0000FFF7FAFB00F048F805F02CF900ED00E0C2
:102C100042F8203C009B0B4942F81C3C019B21F0F0
:102C2000010142F8183C029B42F8081C42F8143C8F
:102C30004FF0807342F8043C0023203A0265C0F84C
:102C4000AC3070477D0D000000B50E4B1546986006
:102C5000D0F8A8200C4B0E461A60D0F8983083F3B9
:102C60000B882C4686F309880020044B98472046A1
:102C7000002100220023024C20470000DFDD00007D
:102C80007D0D0000181A0020741700201022014B3F
:102C90001A61704700ED00E0002320210348C218AC
:102CA0000133452B82F80013F9D1704700E100E0B1
:102CB00008B5EFF30583064A103B02EBC30152F857
:102CC000330049688847BDE80840FFF731BC00BFC2
:102CD000580601001FB5094C094A2346012109483D
:102CE00000F012F900230393074B0121E41A01A815
:102CF0000193029400F012F904B010BD0000072007
:102D0000000000208C0B01002005002010B50C7A7B
:102D10000B6804F01F0223F01F031A43CB686409F9
:102D200023F01F03054943EA440343F00103C1F8BC
:102D30009800C1F89C20C1F8A03010BD00ED00E063
:102D400010B50A4BD3F89030C3F30723013B9842E8
:102D500008D901210346064A06480AF05CFF6FF0D5
:102D6000150010BDFFF7D2FFFBE700BF00ED00E04C
:102D700056170100740901002DE9F04F89461446E9
:102D800006464FF00008514D85B0C84527DAD6F801
:102D900004A0BAF1000F44D0BAF11F0F17D91AF0EE
:102DA0001F0F14D1D6F800B01BF01F0F0FD15846DB
:102DB0000BF051F807460AEB0B0001380BF04BF80B
:102DC000874210D06FF01507414A3B4601E0434669
:102DD000404A012140480AF01EFF6FF015042046CA
:102DE00005B0BDE8F08F17F1160FEDD0BC42EBDD5A
:102DF000C5F89870D5F89C10C5F89870D5F8A03033
:102E000021F01F0143F01F0BD6E900321A4499420A
:102E100002F1FF3A1DD1D34507D13146F8B20BF08C
:102E200023F808F101080C36AFE73146C5F8987071
:102E3000D5F89C3022F01F0203F01F031343C5F89E
:102E40009C30E0B20BF010F810F1160FC5D0441C06
:102E5000E7E7C5F89870D5F8A020013B23F01F03E1
:102E600002F01F021343D3453146E0B2C5F8A0304B
:102E7000E8D00AF0F9FF10F1160FAED0C5F898703F
:102E8000D5F89C209DF808300BF1FF3B62F304035A
:102E90008DF80830D5F8A0309DF808205B0863F362
:102EA00047128DF80820D6E900321344009323F02E
:102EB0001F035B44A3EB0A03013023F01F036946A1
:102EC000C0B20393FFF73CFFBEE700BF00ED00E098
:102ED0009F1701007C170100740901000522044BB3
:102EE000C3F89420BFF34F8FBFF36F8F704700BFBD
:102EF00000ED00E0BFF35F8F0022024BC3F8942087
:102F0000704700BF00ED00E010B5034C2278FFF7DA
:102F100033FF207010BD00BFCE2A00202DE9F74FEF
:102F2000294D8A4606464FF00008AB46274FD0454C
:102F30001BDAD6F80490B9F1000F3FD0316808468B
:102F400001910AF088FF0199044609EB010001385C
:102F50000AF081FF84424FF014021D4B08D002FB9F
:102F600008F36FF015024BF8032003B0BDE8F08FB3
:102F700014F1160F2C60F8D01978A142F5DD02FB90
:102F800008B0C7F89840C7F89840D7F89C4000F1BF
:102F90000801007B64F304000871D7F8A0000C79E5
:102FA000400860F347140C71D7F89C1021F01F0102
:102FB0006960D7F8A01021F01F01296108F101080C
:102FC00014350C36B3E700BF7817002000ED00E0A1
:102FD000CE2A0020F0B54149414CD1F89030256807
:102FE000C3F307239D4287B075D80020FFF782FF07
:102FF0003C4BC1F8C030854216D13B4C01A825702E
:10300000FFF7DCF800250646384FAE4213D100200A
:1030100023783249D1F89020C2F30722934254DB3F
:10302000FFF75CFF00202FE0616801EB0011FFF764
:103030006DFE0130DFE70199280101EB0513DA6825
:103040003A40B2F5001F21D0B2F5800F2BD0B2F577
:10305000801F38D15A689B680958013B22F01F0035
:1030600003440120844623F01F0340EA4C10CDE9BD
:1030700002218DF8100002A920780593FFF760FE69
:1030800000281DDA6FF0150007B0F0BD5A689B6884
:103090000958013B22F01F0003444FF0020C0120AD
:1030A00023F01F03E1E75A689B680958013B22F0AF
:1030B0001F0003444FF0000C062023F01F03D4E749
:1030C00023780133237001359FE7C1F89830C1F8A8
:1030D000A00001339EE74FF0FF30D5E700ED00E0A0
:1030E000980B0100AAFF4400CE2A00200000F0FF48
:1030F000F0B587B007460E461446002110226846F8
:103100001D460DF00EF902238DF80230054B2A46BC
:1031100021466846CDE90476019309F049FA07B0E3
:10312000F0BD00BF9BDE000008B5024809F0F4F9CD
:10313000FEE700BFD117010008B5024B1B68984796
:10314000002008BD8C170020034B044A18609378B8
:1031500043F00203937070478C170020A4010020F5
:1031600008B50649064821F00701C1F1005202F5F1
:10317000E02209F076FE002008BD00BF9F64002019
:103180009017002070B541690446867A0A4D59B1FE
:10319000437ADB0706D42C2303FB06535B6A1B68C8
:1031A0009B689847002363612C20214606FB005052
:1031B000BDE870400CF012BD6C0400202C22024BC4
:1031C00002FB0030704700BF6C0400202C21827A83
:1031D000054B01FB02339A6A1B7F801A1B3323F0D5
:1031E0000303B0FBF3F070476C04002038B52C24C7
:1031F000827A064B04FB02335B6AD3E901240C603C
:103200001568FFF7E3FF04FB005038BD6C04002095
:103210002DE9F04385B00546684690461C4603916B
:103220000CF01CFFDDE90067EFF31189202383F325
:103230001288BFF36F8F6B8B002B41D02A8B9A4281
:1032400025D900220023284604F090FF0446F0B15F
:1032500089F31188BFF36F8F039B002B41D0324657
:103260003B4668460CF01FFF2C21A27A254B2046D6
:1032700001FB02335B6A03A91B681D68DDE90023BB
:10328000A847606170BB2046FFF77CFF24E0698B94
:103290004B1E6B8389F31188BFF36F8F2B7F2A8BB3
:1032A000AC6A1B3323F00303521A02FB0344154B91
:1032B000154AEB1A9B105343A3722B7FE372CBE7A3
:1032C00089F31188BFF36F8F23464246284604F0E6
:1032D0004DFF04460028BFD10024204605B0BDE8BC
:1032E000F0836361012300252381039B29466382C8
:1032F000E27A656004F118000DF013F86369258225
:10330000E360EAE76C040020A38B2EBA70B52C258D
:103310000C4C00B970BD037A4668002BFAD0013B13
:10332000DBB20372002BF5D1C3604360837A05FBE7
:1033300003431B6A13B198473046EAE7FFF722FFC1
:10334000FAE700BF6C040020054B03EB8000D0F8C7
:10335000003223F0E04343F04053C0F8003270479E
:1033600000258450052370B5144D154E2C7801347A
:10337000B4FBF3F303EB8303E41A0BF0EAF8114A0E
:10338000137823B156F82430C01A072814D94FF007
:103390005023D3F8141141B10021C3F81411D3F80C
:1033A00014312C700CB9012313702C780BF0D1F868
:1033B00046F82400012070BD0020FCE7D02A002040
:1033C0009C170020CF2A0020012208B50B4B0C4986
:1033D000C3F8002502230020C1F8D036FFF7B4FF60
:1033E0001046FFF7B1FFC1F80427C1F80429C1F85E
:1033F000002BBDE8084000F099B800BF0010005055
:103400000040005007B54FF480620B4B0B49C3F8E6
:10341000B8254FF400620A48C3F83C250DF10702B5
:103420000BF0F2F8002803DB9DF8070003F0D4FB53
:1034300003B05DF804FB00BF00A002502CA00250B6
:1034400028A1025048B1054B054A1B68B3FBF2F3B3
:103450005843044B43F0010318477047B002002063
:1034600040420F00800A0100002170B5104C114D40
:10347000114E000714F8013B03F01F025B090FD047
:10348000012B0FD1334603EB8203D3F80022013125
:1034900022F0E04202430429C3F80022EAD170BDC1
:1034A0002B46F0E70023803253F82230FFDE00BFC6
:1034B000F517010000258450002884502DE9F041C3
:1034C000064601200D46FFF7CFFF4FF47F03D3F8E8
:1034D0003021D3F83431072A20D1023B032B02D804
:1034E000114AD35CD3B14FF050244FF001080027AC
:1034F0000520C4F81886C4F814760BF050F840463E
:10350000C4F814860BF04BF8C4F81476C4F8187697
:1035100030462B46BDE8F041002118474FF05023BC
:103520000022C3F81426F3E7F1170100014902480D
:103530000AF01EB8D00B0100B01700201FB578B1FB
:1035400000230193039301236946084802930AF07C
:1035500022F8029B9B0700D1039B05B05DF804FB9A
:10356000024805B05DF804EB0AF06CB8B017002013
:1035700008B54FF0FF323F230348C0E9002303F0B2
:1035800017FB002008BD00BFCC17002070B50C4B06
:103590001968D868D3E901524A4080EA050485EAEF
:1035A00002065E6082EA452281EA04064FEA74540C
:1035B00008441E609A60DC6001EB706070BD00BF63
:1035C000D417002008B504480CF0B6F900280CBF49
:1035D0006FF01200002008BDB80501002DE9F3418D
:1035E000DFF87480044698F800308F0801F0030576
:1035F00053B91A481A4E8368102231461B689847FF
:1036000090B9012388F8003004EB8707A7421ED148
:103610003DB1FFF7BBFF2A46019001A938460CF0E7
:1036200059FE02B0BDE8F0810AF093FF30600AF065
:1036300090FF0C4B434073600AF08BFF0A4B4340F2
:10364000B3600AF086FF094B4340F360DCE7FFF705
:103650009DFF44F8040BD9E7D12A0020B8050100EA
:10366000D4170020B0C2649BD4D2D38678E20AA0DB
:103670000E4B402928BF402170B51D460C4C461802
:10368000B04203F1020304D1002305F811300748CA
:1036900070BD02781209A25C03F8022C10F8012B0D
:1036A00002F00F02A25C03F8012CE9E7F02A0020E7
:1036B0000C18010030B503788BB0044607AD032B1E
:1036C00021D8DFE803F0021A1C1E12492846FCF735
:1036D00065FD059563781E210493A3780E4A039334
:1036E000E3780E4802932379019363790093A379D9
:1036F00008F032FF09480BB030BD0949E6E7094937
:10370000E4E70949E2E70A212846084A08F024FFCD
:10371000DFE700BF5C0F01007E0F0100D22A00200E
:10372000630F01006A0F0100740F0100C818010047
:1037300010B50AF074FC0CF04EFB0B4C18B1D4E839
:10374000AF3F63B910BD05F0F5F9D4E8AF3F1BB941
:10375000BDE8104005F002BA0A209847F8E70A20B1
:10376000BDE81040184700BFE417002038B50446F4
:1037700008480AF0A3FB054648B1631EDBB21F2BC5
:1037800096BF054A0021D15C0C300AF0DDFB2846CB
:1037900038BD00BFC40400201D1801000E380128E8
:1037A00010B50AD809480AF089FB044618B104216B
:1037B0000C300AF0C9FB204610BD09B10448F2E7FD
:1037C0000220BDE81040FFF7D1BF00BFF004002089
:1037D0006C040020012110B50C300AF0D6FBBDE8C6
:1037E000104003780121024A02480AF032BC00BFAF
:1037F0004C1801000C09010010B5094BD3F8143125
:1038000063B1084908480CF096FA031E06DABDE8D1
:1038100010400121054A06480AF01BBC10BD00BF3C
:103820000000002054020020D00D00206E1801007E
:103830000C0901000B46B0B50D8A00AF04462946BD
:10384000D868FFF715FF8AB06A46094BC2E90750EE
:10385000C2E9053440F202439384064B4FF43251DF
:10386000054842F8103F0AF001FCBD46B0BD00BF5C
:103870008B180100050000010C09010037B5044652
:10388000084602EBC3039A4202D16FF05E0010E0DB
:10389000114611F8085BA54211D1038A517899426B
:1038A00009D908480121084A00940AF0BEF96FF0CE
:1038B000150003B030BD536898470020F9E70A4669
:1038C000E1E700BF0C090100AD18010010B50121AE
:1038D00004460C300AF059FB2146BDE81040002395
:1038E000014A00780AF0C5BB680C010010B501213F
:1038F00004460C300AF049FB2146BDE81040012384
:10390000014A00780AF0B5BB800C0100F8B501212E
:10391000044600AF0C300AF038FB0678002321463D
:103920003046104AFFF7AAFF5F3018D1258AE068B9
:103930002946FFF79DFE6C468AB06A460A4BC2E9EB
:103940000750C2E9053640F202439384074B4FF417
:103950003251074842F8103F0AF088FBA546BD46A1
:10396000F8BD00BF880C0100CF1801000500000160
:103970000C0901002DE9F74F0023804689461746C0
:10398000DFF804A1DAE8EF4FCAE8E23F002AF9D1F4
:10399000264644B9434601213C4A3D4803B0BDE8B0
:1039A000F04F0AF056BB2046FFF710FC4FF00C0B0F
:1039B000384D0BFB0050438843451BD02046FFF792
:1039C00005FC0BFB0050438801210093324A43461B
:1039D0002F480AF02AF9DAE8EF3FCAE8E26F002A36
:1039E000F9D1002B4DD01E46304603B0BDE8F04F54
:1039F000FFF78CBCA74208D020460AF05AFA3A8A50
:103A0000F96804F10C000AF096FA2046FFF7DEFB95
:103A10000C2707FB00504368ABB1B9F1000F12D17E
:103A20002046FFF7D3FB012107FB00504268D2E993
:103A30000003127A03F01F07B9405B09DAB100EB0B
:103A400083000AF008FB2046FFF7C0FB0C2707FBAA
:103A500000508368002BC7D02046FFF7B7FB7843A0
:103A600005F800902046FFF7B1FB07FB0055A8685A
:103A700004F0AEFBB8E7C94300EB83000AF007FB94
:103A8000E1E703B0BDE8F08F10010020011901004B
:103A90000C090100E81700202919010008B501F000
:103AA00031FC064BD3E8AF2F02F00B02D3E8EF1F37
:103AB000C3E8E02F0028F9D108BD00BFD4000020E2
:103AC0002DE9F8430C4605F035F8E168238A0A78B9
:103AD000042A7BD1022B0DD8424A434801210AF027
:103AE000B8FA2046FFF712FC002405F037F820460C
:103AF000BDE8F8834A783E2A0AD1032B01D13B4A1C
:103B0000EBE7CB78012B01D00A2B49D1032705E045
:103B1000052AFBD00E3A012A42D8012704F10C06EF
:103B200030460AF042FA012105463046B4F81090BA
:103B30000AF023FA022130460AF027FA0378804679
:103B40003E2B07D1E3681B78012B01D00A2B06D14D
:103B5000032614E0052BFBD00E3B012B30D941F29C
:103B60004513234A2349244809F03AFA002383F3F2
:103B70001188BFF36F8F0323184602DF02261F4A06
:103B80000323214698F800000AF073FAB20719D50A
:103B90006369A4F8109013FA85F5E560BB07A3D517
:103BA000214617480AF08EF9164917480CF0C3F859
:103BB000031E99DA0121154A0B480AF04AFA93E7E5
:103BC0000126DCE72046FFF7A1FBE7E713460121CA
:103BD0000F4A05480AF03DFA2046FFF797FB6FF0C1
:103BE000150482E75C1901000C0901007819010035
:103BF00098190100CC190100E5190100500C0100D1
:103C00001401002054020020D00D00206E18010085
:103C1000021A010038B51C480AF069F9044690B34D
:103C200000F10C0528460AF0B8F90428034624D10F
:103C3000284602210AF0A9F9037805460E3B012B1C
:103C40000ED840F6A843114A1149124809F0C8F9A4
:103C5000002383F31188BFF36F8F0323184602DF1D
:103C6000032321460C4A28780AF003FA2046FFF77E
:103C70004DFBBDE83840FFF7BFBD0121074A0848AA
:103C80000AF0E7F9F2E738BD1401002098190100A5
:103C9000161A0100E5190100680C0100441A010020
:103CA0000C09010010B5C1E900239DF808300C464D
:103CB0000B72FFF78BFA0C22024B02FB00335C60A5
:103CC00010BD00BFE8170020F8B502460B461048AB
:103CD0000AF0F4F80446C0B104210C300AF021F9CE
:103CE0002046FFF773FA0C2700260A4D07FB005009
:103CF00046802046FFF76AFA07FB005086602046A0
:103D0000FFF764FA07FB00556E602046F8BD00BF60
:103D100098040020E817002010B5044692B0442211
:103D2000064901A80CF0D6FA102C9DBF12AB03EB8C
:103D3000840454F8440C024812B010BD1C0A01005F
:103D4000581A0100034B0146D3F834018268926887
:103D5000104700BF000000202DE9F84F042100AFFC
:103D600046480AF078F96D4601F0CCFA88B06A4608
:103D7000434B4FF4E6515361424B434893614FF438
:103D800000739383414B424C42F8103F0AF06EF9A6
:103D9000AD46E2793F4B404E2046012A88BF1E4681
:103DA000FFF788FC8AB06A463C4BD061C2E9053611
:103DB0003B4B4FF4235113623A4B334842F8103FC8
:103DC0000AF054F9A346AD460125374EDFF8DC80F2
:103DD000DFF8B490E3790BF1070B9D4238DB94F8E0
:103DE00070506E462846FFF797FF8CB06A46B4F8CD
:103DF0007210B4F87630C2E907514FF4007553627F
:103E0000DFF8ACC02B4BC2E905C015854FF4535108
:103E100042F8103F1C480AF029F9B54694F8716041
:103E20003046FFF779FF8AB06A46B4F87430224909
:103E3000C2E90763214BC2E9051095844FF4335161
:103E4000114842F8103F0AF011F9BD46BDE8F88F5D
:103E50005846FFF72FFCEA468AB06A4640F2013323
:103E6000C2E90565D06113844FF41351484642F806
:103E7000108F0AF0FBF80135D546ABE7D4000020DF
:103E8000641A0100761A01000C0901000300000108
:103E900000000020601A01000F2601007A1A0100BC
:103EA0000002010304000002891A0100040000015D
:103EB0009A1A010006000001D81A0100050000014D
:103EC000014804F039BB00BF4402002070B505462C
:103ED0000C4659B94FF0FF304FF0FF31FFF7F4FEB9
:103EE000044618B96FF06805284670BD2046FFF7F4
:103EF0006DF90C22184BA61802FB003330465D808A
:103F00000AF053F803280BD9032130460AF024F8AD
:103F10000580238A0121033B837030460AF024F890
:103F200040F635439D420FD12046FFF70BFF054673
:103F30000028D9D003460121084A09480AF089F827
:103F40002046FFF7E3F9CFE7214606480BF03BFE9A
:103F50000025FFF7B5FFC7E7E8170020FF1A0100AB
:103F60000C0901001C01002038B502460B462B4D00
:103F7000D5F81C1109B9002038BD05F1F80004F08E
:103F800061F90028F7D10022002305F58E7004F0B6
:103F9000EDF8044668B940F6B843214A2149224861
:103FA00009F01EF884F31188BFF36F8F03231846BE
:103FB00002DFD5F810315BB101211C4A1C480AF020
:103FC00046F8D5F81001FFF7A1F90023C5F8103124
:103FD000204609F0A2FFC5F810012046FFF7B2FE07
:103FE0000346C8B10121134A11480AF032F81248B9
:103FF00004F0EEF82046FFF7E9F80C220F4B02FB25
:104000000033588818B122461F21FFF7B3FC204621
:10401000FFF77CF9FFF754FF0120ADE70000002017
:104020009819010040180100E5190100211B010049
:104030000C090100FF1A0100F8000020E817002019
:104040002DE9F04F87B0064690460C4600AF71B997
:104050004FF0FF304FF0FF31FFF736FE044668B9EE
:104060006FF0680528461C37BD46BDE8F08F887A9A
:10407000FFF7A4F8524B834240F09C8001220021BC
:1040800038460BF0B9FD2046FFF7A0F80C23DFF807
:1040900034B103FB00B08760204609F03EFF0146C3
:1040A0003046FFF713FF054618B12046FFF72EF9FB
:1040B000D8E70CF0DBF9444B1A58444B9A421ED116
:1040C00043480BF095FD002182464FF4A020FFF7F6
:1040D0004BFF814688B94FF4F9733E4A3E493F4849
:1040E00008F07EFF31463E4808F07AFF89F31188D8
:1040F000BFF36F8F0323184602DF5445E0D14FF41E
:10410000A0220023384604F09DF8814698B14FF470
:10411000FC73304A3349314808F062FF4A46314661
:10412000314808F05DFF002383F31188BFF36F8FE0
:104130000323184602DF2046FFF748F80C235843B4
:104140001BF80090B9F1000F2DD06D468AB06A4679
:10415000264BC2F81C90C2E90536254B4FF432516C
:10416000136240F202439384224B234842F8103FEB
:1041700009F07CFF2046AD46A9F10909FFF7C6F812
:10418000B9F1090F0CD8DFE809F0180B0B08050B83
:104190000B0B0B156FF00B0564E76FF00C0561E777
:1041A0006FF004055EE7B8F1000F3FF47EAFC8F88A
:1041B000004057E76FF0150554E76FF06E0551E7C3
:1041C00098040020E81700200800000038100020A4
:1041D0001C010020981901003C1B0100E519010099
:1041E000441B0100641B01006D1B0100B21B010098
:1041F0000F260100050000010C09010000222DE935
:10420000F04182B0114640F6034000AFFFF718FFBF
:10421000044600285FD1FFF741FC214641F203002C
:104220003A1DFFF70DFF0446002854D17A68C04DAF
:10423000D16805F17803D1F80100D1F8051003C366
:104240001046FFF763F8214641F201003A1DFFF7DF
:10425000F7FE044600283ED17868C3685A7885F88E
:1042600070205A88A5F872201A7985F87120B3F861
:104270000720A5F87420B3F80530A5F87630FFF7CD
:1042800045F8214641F202003A1DFFF7D9FE0446E7
:1042900008BBD7F804C005F18006DCF80C20531CDD
:1042A0004132344618685968083303C4934226469D
:1042B000F7D16046FFF72AF801F0A8F9044650B993
:1042C00095F87C3058060BD401219A4A9A4809F097
:1042D000BEFE6FF0120420460837BD46BDE8F081EF
:1042E000214642F203003A1DFFF7AAFE04460028C9
:1042F000F1D17A68914BD168D1F80100D1F805105D
:1043000003C31046FFF702F81F23A5F8E83095F81D
:104310007C30990618D44FF0FF304FF0FF31FFF793
:10432000D3FC064600284CD002210C3009F0FDFDDC
:104330000123447022460370314640F66D40FFF77A
:104340007FFE04460028C6D195F89C301A0712D586
:10435000002142F21C003A1DFFF772FE04460028BD
:10436000B9D17868C368D3F80120D3F80530C5E91E
:104370003823FEF7CBFF4FF0FF304FF0FF31FFF750
:10438000A3FC0446E8B108210C3009F0CEFD02265A
:1043900000222146067042708270C2700271427122
:1043A0008271C27142F20100FFF74AFE0446002802
:1043B00091D14FF0FF304FF0FF31FFF785FC804681
:1043C00010B96FF0680486E708210C3009F0ADFDE4
:1043D00080234370202304708470047144718471BD
:1043E0002246C670C371414640F60140FFF728FEE1
:1043F000044600287FF46FAF01463A1D4FF6014096
:10440000FFF71EFE40B14E4A02214B4809F01FFE45
:1044100000F014FC04465EE77B686E46DC688AB0F8
:10442000B4F80130032B96BF464A474952F823108F
:104430006A46D3614FF4007344481384444BC2E985
:10444000050142F8103F4FF413513B4809F00EFEAE
:10445000B4F80120B546022AB4F8033049D1052B3F
:1044600047D83C4A52F823106E468AB06A46D36158
:104470004FF4007338481384354BC2E9050142F804
:10448000103F4FF413512C4809F0F0FDB546637905
:1044900094F806C0032B98BF304AB4F80760D4F8EC
:1044A00009006C468CB094BF52F8231026496A4626
:1044B000C2E9073C4FF40073DFF8A4E09385294B71
:1044C000C2E905E1C2E909604FF4735142F8103FB7
:1044D000194809F0CBFDA5467868FEF717FF0021C3
:1044E0004FF602403A1DFFF7ABFD044618B11E4AD5
:1044F0008AE71549B8E77868C368B3F80130A5F8CA
:10450000C130FEF703FF95F8C1305B0780D5214627
:104510004FF603403A1DFFF793FD08B1134A73E7C6
:104520007868C3685B7885F8C030FEF7EFFE6FE708
:1045300000000020D11B01000C090100D800002060
:10454000F51B0100400C0100581A0100191C010064
:1045500004000001280C0100321C0100180C0100AD
:104560004A1C010007000001771C0100A01C01008B
:1045700073B52C4D0646D5F834010BF0DDF948B97A
:104580000121294A294809F062FD6FF012042046F2
:1045900002B070BD6FF0020105F1D40009F077FDA3
:1045A000012109F058FD10EA010437D1204B1E60AB
:1045B0000A4605F1F8000BF01FFB05F58E700BF0B5
:1045C000F6FA1C480BF0E2FB6FF007034FF496621B
:1045D00019491848009403F0B5FF1849154804F02C
:1045E00061F8D5F83401164983681B68984704467A
:1045F00030B103460121134A0C4809F02AFDC6E7F1
:104600003EB9FFF7FBFD04460028C0D1FFF7A4FB2D
:10461000BDE705F1C40003F08FFFB8E76FF0770442
:10462000B5E700BF00000020C91C01000C09010013
:10463000F4170020D00D002078340020E11C010088
:10464000C13A0000EA1C010010B5FFF7D7FD04468F
:1046500008B9FFF781FB044B1B681BB12046BDE87E
:104660001040184710BD00BFF4170020F7B5144BD9
:10467000054693F99B300C46002B1DDA14B92046F1
:1046800003B0F0BD082C4FF0000142F2180001AA5F
:10469000264628BF0826FFF7D3FC0028F0D1019F4B
:1046A0003246F968284601310BF014FE3846FEF711
:1046B0002DFE3544A41BE1E76FF08500E0E700BF65
:1046C0000000002038B5042104460C3009F05DFCE0
:1046D000034640885D7818B122461978FFF74AF9F9
:1046E00035B1044803F074FDBDE83840FFF7E8BB7E
:1046F00038BD00BFF8000020B0B50446032100AF6C
:104700000C3009F042FCE3680578197840F635432F
:10471000B0F80100984215D16C468AB06A460F4B3A
:104720000F48C2E905310F4B4FF41251D36140F2EB
:10473000013313840C4B42F8103F09F097FCA54657
:10474000BD46B0BD10B12246FFF714F9002DF7D0D9
:10475000064803F03DFDFFF7B3FBF1E7061D01003E
:104760000C0901000F26010004000001F8000020E0
:10477000F8B506460024094DEF79E3B29F4202D80E
:104780006FF0010007E02946304609F093FC073539
:10479000631C08B12046F8BD1C46EEE7000000206F
:1047A00070B51A4E0622314605460BF0C2FD38B3ED
:1047B0004FF0FF304FF0FF31FFF786FA044608B3A1
:1047C000062229460C3009F0B6FB2146002242F2AF
:1047D0000500FFF735FC044648B110F10D0F04D178
:1047E00002210B4A0B4809F06DFC204670BD334690
:1047F0002A6843F86929AA88B280012283F86820D0
:104800000024F2E76FF06804EFE700BF69000020C2
:104810004D1E01002C09010037B504460D4689B133
:104820002846184909F046FC60B9174A2968C4EBC4
:10483000C4041151A318AA889A80AA799A710020F9
:1048400003B030BD684609F0CDFB0028F8D16846BA
:10485000FFF78EFF0028F5DA0B4A0098C4EBC4047A
:1048600010519DF80610BDF80400A31898809971A6
:10487000002DE4D012592A609A88AA809B79AB71E6
:10488000DDE700BFF91701000000002008B528B1DE
:10489000054809F019FC030601D5012008BD0248AE
:1048A00009F012FCF9E700BFD400002070B50446FF
:1048B000B1B9C0B11F4909F0FDFBA0B92046FFF70F
:1048C00057FF00282FDA2378012B04D1A37903F0B6
:1048D000C003C02B07D00121174A184809F0F2FB8A
:1048E0006FF0150070BD164DEB79012B1ED005F150
:1048F000D40009F0E9FBC30707D4002CF0D0204610
:104900000C4909F0D7FB0028EAD1EE792146731C47
:104910003046EB71FFF780FF08B93046E2E7EB79EC
:10492000013BEB71DEE76FF07700DBE76FF00B0028
:10493000D8E700BFF91701005C1E01002C09010037
:10494000000000202DE9F341044640B91A4A022133
:104950001A4809F0B7FB002002B0BDE8F081002141
:1049600041F2090001AAFFF76BFB054608B1144AA2
:10497000EDE7019E0622D6F80C80124908F10107E6
:1049800038460BF0D6FC28B1062238460E490BF00B
:10499000D0FC18B93046FEF7B9FCDCE7D8F8013096
:1049A0003046C4F80130BB882570A4F80530FEF706
:1049B000ADFC0120D0E700BF8A1E01002C090100D8
:1049C000A31E0100061801000018010007B5684683
:1049D000FFF7B8FF044BD87118B169460020FFF704
:1049E0001BFF03B05DF804FB00000020F0B5304D64
:1049F00089B0EC79002C53D195F8C26016F001060D
:104A000010D12C4A02212C4809F05CFBEC711626CF
:104A100000240127EB79E0B298422CD3002B3FD041
:104A200000203BE06A4621464FF60940FFF708FBAD
:104A300008B1224AE6E7DDF800C0DCF80C104B783C
:104A400023B96046FEF762FC1D4ADBE78B1C02AA15
:104A500001F11204174618685968083303C7A342C6
:104A60003A46F7D11868344638609B886046BB8068
:104A7000FEF74CFCCAE708AB06FB003353F8182CD2
:104A800033F8143C6946CDF80120ADF805308DF8B7
:104A90000070FFF7C1FE01340028BBD009B0F0BDA3
:104AA0000021084609B0BDE8F040FFF7FFBE00BF97
:104AB00000000020C11E01002C090100ED1E0100B4
:104AC0000D1F010010B50C4631B300F0AFF998B1DD
:104AD00000F11003184609F0F7FAC1050CD5184685
:104AE00009F0F2FAC20407D50D4B1B78012B11D146
:104AF0000123002023700CE000F098F920B1103061
:104B000009F0E2FAC305F3D4002009F0EDFA002819
:104B1000EED010BD0023ECE76FF01500F9E700BF01
:104B2000000000202DE9F0410E4617461D460446C0
:104B300050B14BB10A03037813D54C0709D50121B5
:104B40003A4A3B4809F0BEFA6FF015042046BDE82A
:104B5000F08109F0DFFA04460028F7D101232B7019
:104B6000F4E7B1072FD033480FB1B20608D4C3EB36
:104B7000C302825C012A13D002B92A700024E5E73F
:104B800090F8D82051064ED5C3EBC302825C012AAF
:104B900006D002B92A702B7843F002032B70EDE7A0
:104BA0004FF00108072111FB03810144204609F061
:104BB00093FA04460028C9D185F80080002FDDD083
:104BC000B206DBD5E7E716F0040213D01949C3EBB0
:104BD000C3028F5C012F0AD1072212FB0373194411
:104BE00009F07AFA04460028B0D12F70E8E7002FC8
:104BF000E6D1FAE7104809F067FA830604D42046A4
:104C000009F088FA0446A9E7104600F093FB06462F
:104C1000204609F07FFA044601202870002E95D125
:104C200000F088FB92E76FF085048FE7361F0100E4
:104C30002C09010000000020D400002038B5104DE0
:104C4000EB7913B10024204638BDFFF7BFFE0446C0
:104C500028B10C4A01210C4809F034FAF3E7EB794A
:104C6000002BEFD1FFF7C2FE04460028F1D1681CEB
:104C7000FFF796FD04460028E5D0044AEAE700BFA6
:104C800000000020551F01002C090100741F0100C5
:104C90002DE9F74F8A4601904FF0FF314FF0FF307A
:104CA000FFF712F8044600284ED020210C3009F0FE
:104CB0003CF94FF0000980464D46202200210BF0C0
:104CC00030FBDAF8007008F1010BDAF804209145A6
:104CD00009D300222146019888F8005003B0BDE8AE
:104CE000F04FFFF7ADB97A78A81C81181F2997F803
:104CF00000C015D9BCF1090FC0F11F0201D1002A73
:104D00000CDC0121124A134808F07CFF2046FEF714
:104D1000FDFA6FF0150003B0BDE8F08F4FF0080CFE
:104D2000D6B2711C0BF80510691CC9B20BF801C092
:104D3000023679685BFA80F02E440BF0CBFAF5B2BC
:104D400009F101090837C0E76FF06800E3E700BF29
:104D5000971F0100F4080100F8B54568064669058B
:104D600035D4046914B115F0030330D0194F3078ED
:104D7000FB7983422BD9C0EBC00007221649384487
:104D80000BF0D7FAA8B115F0030306D197F87020FD
:104D9000082A02D8B2689F2A19D915F0300F09D015
:104DA000ACB1EA060AD405F46035B5F5603018BF39
:104DB0000120F8BDEB0601D4002CF4D1D6E9022382
:104DC0009A4204D81F2A02D9B3F5804FEBD90020AC
:104DD000EFE700BF00000020F9170100F7B5CDE9AB
:104DE0000001694642F2080016461D469DF82070F3
:104DF000FFF74EFF044648B95FB90B4BD3E8EF1FEE
:104E000041F00401C3E8E21F002AF7D1204603B0B5
:104E1000F0BD694642F20900CDE90065FFF738FFB1
:104E20000028EAD00446F1E7280000200048704737
:104E3000180000202DE9F04F7D4ED0F810B0054647
:104E4000BBF10004304687B018BF012409F091F986
:104E50000F46410791469A4640F1CA802846FFF71F
:104E60007BFF60B96FF015043846002340F2011152
:104E7000994540F0C680204607B0BDE8F08F28462F
:104E8000FFF704FD80460028ECD0A6F1AC0009F045
:104E900070F9C205C0F3002300F1AD80CDE9033302
:104EA000CDF81330AB686868ADF80830EB68ADF842
:104EB0000A3009F04FF98DF81500D6E8EF3F23F4DA
:104EC0008073C6E8E23F002AF7D12A780DF10D037E
:104ED00006F8BC2C06F8652C69682246A6F1BC00D1
:104EE000FFF720FE04460028BED1A6F1B303BBF1B4
:104EF000000F11D02A69116846F8B31C9188998077
:104F000092799A716B689C073AD1990502D4BAF1EB
:104F1000000F49D002230BE0464A116846F8B31C43
:104F20009188927999809A716B689807EDD05B4669
:104F30008DF80C304FF0FF304FF0FF31FEF7C4FE1C
:104F4000044600285AD00F2202A90C3008F0F3FFC3
:104F50002146002242F20600FFF772F804460028BC
:104F600082D1BBF1000F23D00121334809F019F998
:104F7000044648B30121314A314808F043FE73E743
:104F800013F0100F0CBF012304238DF80C302B6994
:104F90001A68CDF80E209A88ADF812209B798DF80A
:104FA00014304FF00008C5E703238DF80C30F8E704
:104FB000524649463846109BCDF80080FFF70EFF59
:104FC00004460028D0D04FE76A681E4812F003025A
:104FD00018BF0122092109F0CFF842460A2109F041
:104FE000CBF86A680C21C2F3800209F0C5F83BE7F0
:104FF0006FF00A0438E76FF0770435E76FF0680464
:1050000032E702888A4204D1426812B11278D2078C
:1050100002D4013308302BE70B490C480AF0BCFEE0
:105020004FF470220023094803F036FB23E700BF4A
:10503000D4000020F917010018000020B01F010063
:10504000F4080100280000209D50000030000020DE
:1050500010B50F4809F0CBF80E4809F08AF8C205E0
:1050600013D500210A4809F09CF8044670B90A4893
:1050700009F07FF8830608D5204600F05BF920464A
:1050800009F032F8012000F055F90024204610BD47
:105090001800002028000020D400002010B5FFF7E1
:1050A000D7FF034630B1BDE810400221024A034851
:1050B00008F0B1BD10BD00BFCB1F0100F408010016
:1050C00070B505460E464FF0FF304FF0FF3186B009
:1050D000FEF7FAFD0446A0B102210C3008F025FFCE
:1050E000094A4670057003A9204605230095FEF77E
:1050F000D9FD0022214642F20C00FEF7A1FF06B0C6
:1051000070BD6FF06800FAE7D400002008B50C4BC2
:105110000246400903EB800009F06CF802F01F031F
:1051200040FA03F313F0010006D122B9054809F053
:1051300061F840F3C01008BD6FF07700FBE700BFD7
:10514000F8170020D4000020084A430902EB83022C
:10515000012300F01F008340DB43D2E8EF0F18402B
:10516000C2E8E10F0029F8D1704700BFF81700200E
:1051700030B587B0002200235C4802F02FFF0028E2
:1051800040F092805A4809F035F810F00103584D6C
:1051900045D02B1D93E8070006AB03E907005548EF
:1051A00009F028F8C0F34013514809F023F80146EC
:1051B00000286BD073B10C224F490DEB02000BF0AD
:1051C000B8F800286BD000210846FFF779FF0446A5
:1051D000002865D10023ADF80930BDF80E309DF8E8
:1051E0000C00ADF80530BDF810308DF80400ADF8B6
:1051F0000730431E58420DF109015841FFF762FC88
:10520000044600284CD14FF0FF304FF0FF31FEF73D
:105210005BFD0546002849D16FF0680440E0354841
:1052200008F0E8FF10F0800F344A0ED04FF480747D
:105230009089D1891269ADF80C40ADF80E00ADF837
:105240001010ADF812300592A9E72D4C03AB206881
:10525000616803C3A068186092F8D930180748BF86
:105260000523234848BF8DF80D3008F0C3FF8107A0
:1052700006D53023ADF810306023ADF80E308EE740
:105280001B4808F0B7FF4207F3D488E73BB1FFF7AC
:1052900017FF044620B9184B2861C3E90100002418
:1052A000124802F013FF204607B030BD072201A9C3
:1052B0000C3008F040FE2246294642F20B00FEF771
:1052C000BFFE04460028EBD19DF80D10012001F02F
:1052D0000101FFF7F5FE04460028E1D1064B06AABE
:1052E00012E9070083E80700D9E700BF141800207F
:1052F000F8170020D400002008180020000000202B
:105300006C0A010010B5094C4422002120460BF024
:1053100008F804F11C000AF0B9FB04F130000AF0AF
:10532000B5FB0022024B1A6010BD00BFF817002029
:1053300044180020044B0038597C18BF012001F0AC
:105340000101FFF7BDBE00BFF8170020032838B5E4
:10535000054603D1BDE83840FFF70ABFFFF7D6FE88
:105360000446A8B90B4B6A0903EB8203012205F03E
:105370001F018A40D3E8EF0F1043C3E8E10F002973
:10538000F8D1FFF7F5FE044610B12846FFF7DCFE22
:10539000204638BDF81700202DE9F04F00F10C062B
:1053A0008BB00446304608F0F8FD8046644808F0AB
:1053B00021FF00F001036248029308F01BFFDFF8B1
:1053C00084A1C0F380030193B8F1000F02D10BB0A8
:1053D000BDE8F08F029B13B9019B002BF7D0238A05
:1053E000082B07D80121584A58480BB0BDE8F04FA8
:1053F00008F008BC0921304608F0C7FD037A228A6C
:1054000001339A420546EDD30123ADF824307F23C2
:105410008DF81E30037A471C03445B7A8DF81D30EB
:10542000FF238DF81C300023ADF822300278042AC7
:1054300098BF474B8DF81F2098BF9B5CADF820307C
:10544000037A3F48009308F0D5FE03463C4808F035
:10545000D1FEDA0703D5BDF820305B0765D43846A6
:1054600008F0D9FD00284AD0394604A808F0C8FD44
:10547000DAF80030B3B1304608F097FD8146009B62
:10548000B4F810B0DAF8007023829DF81F2033467C
:105490009DF91D1004A8B8476369A4F810B013FA69
:1054A00089F3E36004AB06932A4B1A68002A3AD0CA
:1054B000136803B1083B52F8081CB9B11F46A2F1AA
:1054C00008033046039308F070FD8146009BB4F852
:1054D00010B02382039B31461B6806A89847636976
:1054E000A4F810B013FA89F3E3603B46DBB19F6880
:1054F0001A68B7B1083F002AE3D13B46F7E76B785B
:10550000FF2B09D1144B186804909A889B79ADF849
:1055100014208DF81630ABE7394608F0D8FD034665
:10552000F1E7002ACDD100230693297A30460131D4
:1055300008F1FF3808F021FD5FFA88F844E700BF62
:10554000F817002044180020F11F01003409010061
:105550000A2001003C180020F9170100F8B50546A3
:10556000224808F047FE43070F463CD52A78012A17
:1055700003D96FF015042046F8BD6B780F2BF8D8CF
:1055800043F6FC746888031F9BB2A342F1D8A98834
:105590000B1F9BB2A342ECD88842EAD37AB900220F
:1055A0000023134802F01AFD04460028E3D1FFF758
:1055B000ADFD044640B10E4802F088FDDBE708F07F
:1055C000C0FD0028EBD1D4E728686968094E0A4B72
:1055D00003C6A8681F6030602046FFF7B7FE044688
:1055E00006F12400E8E76FF00A04C4E7D4000020C5
:1055F00028180020FC170020441800200020024B2F
:10560000186008F0FABD00BF4418002008B504F087
:1056100071F938B101210346034A044808F0FBFA46
:105620006FF0040008BD00BF17200100240901002D
:1056300008B504F005F938B101210346034A0448CE
:1056400008F0E9FA6FF0040008BD00BF3320010044
:1056500024090100F8B504260D4607693744384689
:105660002A8AE968FBF740FD10F10C0F04460BD1C4
:105670004B200AF045F9013EF1D122460649074880
:1056800008F0C8FD2046F8BD0028F6DB2846FDF7E7
:105690003DFE0024F6E700BF62200100140901006E
:1056A0002DE9F04F1746D2F8109002780546042AEB
:1056B000884687B001F1FF330BD0052A00F09580B2
:1056C000022A40F0D480032B61D8042200926B4A56
:1056D00004E0012B09D802220092694A012169489D
:1056E00008F0A3FA07B0BDE8F08F43783E2B30D125
:1056F000C678B31E5E425E41B5F80120A8F10303EF
:10570000B3EB122FADF814204FEA122826D116B3AE
:1057100000230024CDE90234DFF86CB1DFF864A186
:105720003146DDE902239DF81400FEF737F8044600
:10573000C0B100F10C06022205A9304608F0FBFBBF
:10574000304608F036FC804514D9434600904F4A55
:1057500037E00026D0E74FF4A023DAE74C4ACDF833
:105760000080BBE7002EBDD102215A46504608F00A
:1057700049FAD5E742463046E91C08F0DCFB2146F1
:105780003846D9F8003007B0BDE8F04F184700227E
:1057900000230820FDF7EAFF0446D0B1D5F8013018
:1057A000A8F1050600F10C080422404605A905935E
:1057B00008F0C1FBBDF816309E4250D0009333462E
:1057C000344A01212F4808F030FA2046FDF79EFDAB
:1057D00088E70121304A2B4807B0BDE8F04F08F0B8
:1057E00011BA32464046691DC7E7032B03D804228D
:1057F00000922A4A72E7002200232020FDF7B6FF1C
:10580000DFF89CA00446C0B1D5F80130A8F1050628
:1058100000F10C080422404605A9059308F08BFB13
:105820000023CAF80030BDF81630C3F30D039E42C2
:1058300015D01C4A00933346C3E76421DAF80020F0
:10584000B2FBF1F301FB13231BB917490D4808F014
:10585000E1FCDAF800300133CAF8003042E7404694
:1058600008F0A7FB8642BCD9334600906FE70F498A
:10587000044807B0BDE8F04F08F0CCBC2D21010072
:105880007A20010014090100D52001000A2101003D
:10589000A620010071210100572101009E21010075
:1058A00048180020E8210100C8210100162201004B
:1058B00070B5056900200E4600F060F8044630B16E
:1058C00002461549154808F0A5FC204670BD286C15
:1058D000FBF77CFB044628B110F1780F02D002469A
:1058E0000F49EFE7286C05F10C02291DFBF7AEFB11
:1058F000044610B102460B49E4E74FF4803200231E
:1059000005F1280002F09EFC044610B1024606494B
:10591000D8E72E60D9E700BF2A2201001409010050
:105920004F2201007F220100A322010038B5056942
:10593000281DFBF7ADFB044630B102460B490C486D
:1059400008F068FC204638BD286CFBF75FFB044676
:1059500010B102460749F2E708F061FC044610B1B5
:1059600002460549EBE72860ECE700BFC3220100CF
:1059700014090100EE22010012230100102208B5D3
:10598000034B0120C3F84024FDF7D8FD002008BDDB
:1059900000300050084B70B5C31A0D4607499B10E4
:1059A000044659434022064808F048FC2B4601466D
:1059B0002046BDE87040184760180020B76DDBB680
:1059C00038050100402373B50B4C0093041B0B46B4
:1059D0000D460A49A41061430646094A094808F0E1
:1059E00058FC011E05DA30462B4602B0BDE8704077
:1059F000184702B070BD00BF60180020B76DDBB65D
:105A0000FBE20000380501002DE9F04700220121EA
:105A100007460520FDF7C4F8124801F0FDF80446DA
:105A2000D0B901F02DF925464FF01C0A4FF00C08B3
:105A3000DFF834903E6949460AFB056007F098FD9F
:105A4000031E0CDB012308FB05661D44042DB36710
:105A5000F0D12046BDE8F0876FF00404F9E71C465A
:105A6000F7E700BFA15B00009C0C01007FB500229E
:105A70000123CDE9022304ABCDE90433094A6B4687
:105A8000CDF800D0CDF804D008F030FC002805DBBC
:105A90004FF480420023684602F0D4FB07B05DF863
:105AA00004FB00BF25E3000010B5EFF311842023B1
:105AB00083F31288BFF36F8F074A136823F0020144
:105AC000DB07116002D4012008F0C1FD84F31188C6
:105AD000BFF36F8F10BD00BF001900200C22104BC8
