:020000040100F9
:10000000D87D0021F1B70101C9110201DDB701015D
:10001000DDB70101DDB70101DDB70101000000001E
:100020000000000000000000000000004DB90101C8
:10003000DDB7010100000000EDB80101DDB70101ED
:10004000BDBA0101BDBA0101BDBA0101BDBA0101CC
:10005000BDBA0101BDBA0101BDBA0101BDBA0101BC
:1000600079190201BDBA0101BDBA0101BDBA010190
:100070008F190201BDBA0101BDBA0101BDBA01016A
:10008000BDBA01015F190201BDBA0101BDBA01018A
:10009000BDBA0101BDBA0101BDBA0101BDBA01017C
:1000A000BDBA0101BDBA0101BDBA0101BDBA01016C
:1000B000BDBA0101BDBA0101054B00221B78826067
:1000C00001330260034A4260C371FF230372704729
:1000D000080A002128010800064A074B02604FF475
:1000E00018729B7882800822C37100238271037288
:1000F000704700BFF9A50101080A0021064A074B15
:1001000002604FF43672DB7882800822C3710023CC
:1001100082710372704700BFC3A20101080A002167
:10012000064A074B02604FF4B472DB7A82800822E1
:10013000C371FF2382710372704700BF099E0101E2
:10014000080A00212DE9F341C41D0028064624F0C9
:1001500007040CBF0020204600F0E2FC071E04DA72
:100160006FF00B0002B0BDE8F081374DE988A88838
:1001700003316B7A03302A7A89B280B216F0F6FB2B
:100180000028EDDB3C44A978EB78002E04F1030451
:10019000194424F0030400FB01F10CBF00202046A9
:1001A00000F044FE20440EB90028D9DBEA7A044668
:1001B000B2B1EB7B697C13441944FF29D0D80330DA
:1001C000002EAA89C9B220F003040CBF00202046EB
:1001D00000F09EFE0028C3DB04440EB9002CBFDBF8
:1001E000012000F093FCB0B1A97BA1B195F82A30B1
:1001F00033B340234FF481720734002E24F00704F8
:100200000CBF0020204605F095FA0028A8DB044426
:100210000EB9002CA4DBAB7AFBB1EB7AB3B1073497
:10022000002EA97A24F007040CBF002020460BF012
:100230005BF8002894DB04447EB9002C0DDA8FE7CC
:1002400025232822D8E700BF080A0021012000F05A
:100250005DFC10B1AB7B002BE1D1734B1B6893B1FC
:10026000A97D81B10334002EEA7D24F003040CBF84
:100270000020204698470028FFF672AF044416B9C4
:10028000002CFFF66DAF694B1B688BB1297C79B1EF
:100290000334002E24F003040CBF002020469847AE
:1002A0000028FFF65DAF044416B9002CFFF658AFE6
:1002B0005F4B1F68B7B1697CA1B10334002E2B7D61
:1002C00024F0030408BF0020009318BF2046EB7CF5
:1002D000AA7CB8470028FFF643AF044416B9002CA7
:1002E000FFF63EAF072000F011FC98B1A97D89B15F
:1002F0000334002E2A7E24F003040CBF0020204685
:1003000000F0F4FE0028FFF62BAF044416B9002CD1
:10031000FFF626AFB6FA86F795F823007F09A0B15D
:1003200003346B7FA97E24F0070419443B4644F054
:100330000404C9B2224600F019FF0028FFF610AFEE
:10034000044416B9002CFFF60BAF95F824100029D1
:100350004CD004F10708002EEA8C28F007080CBFE7
:100360000020404616F016FB041EFFF6F9AE44448A
:10037000002E3ED1002CFFF6F3AEA97F002945D018
:1003800095F82230002B41D02A8C0734002E02F140
:10039000240224F007080CBF0020404692B216F059
:1003A000F9FA0028FFF6DCAE404416B90028FFF643
:1003B000D7AE03302B7FA97E20F0070019443B46BF
:1003C00040F0040495F82200C9B2224600F0C0FEB5
:1003D0000028FFF6C5AE044486B9002CFFF6C0AE77
:1003E000EB6AF3B1C6B1EC620020BBE6002EC4D0CC
:1003F0008846E98C404611F0F9FEBEE72A8C40465B
:10040000A97F083292B211F0F7FEE9E7002EE7D09B
:10041000002211461046F6E728343FF5A1AE2046EB
:10042000A0E6002EE0D1FAE7600000216400002180
:10043000680000211FB572B6194B1C6BECB9BFF3F5
:100440004F8F1849184BCA6802F4E0621343CB601F
:10045000BFF34F8F00BFFDE7B2FBF6F22B465D1CEA
:10046000002AF9D1DBB203F110056D4405F80C2C1C
:100470000A2233B901A8A047E1E7024600230A2671
:10048000EDE7013BDBB203F110050DEB0506B0FB18
:10049000F2F502FB1500303006F80C0C2846E8E7B0
:1004A000080A002100ED00E00400FA0513B5124C23
:1004B00068462389ADF80030E388ADF80430A3889E
:1004C000ADF8023008F0FEFC18B1FC219C20FFF7CB
:1004D000B1FF207D08F05AFD08B1FF21F6E7E07C6E
:1004E00008F04EFD10B14FF48071EFE794F828004A
:1004F0000FF04EFE02B010BD080A002138B50546C7
:10050000002840D015F034F810B94FF0FF3038BD56
:1005100014F0F4FDB0F5FA7FF7D81C4C1C482563A5
:100520001B2500F06FFA00212A4604F10F0084F821
:100530003410217084F82A10E16215F063FA012367
:10054000032108200222A370E370E372A3742376D0
:10055000F72321722384FB23A0721F20A17349215A
:10056000E3840A23A580E5806272A081E174E275CC
:1005700084F82830EFF3108472B600F007FE04B957
:1005800062B60020C3E76FF01500C0E7080A00213B
:10059000AD04000138B51446002840F0C480634D16
:1005A00095F83430032B00F0BB80B9B112B96FF06D
:1005B000150038BD0139172900F2B580DFE801F0D8
:1005C0000C1D20366069873C6C6F814248565B8DFC
:1005D000909FA2A596B3B3A81378AB700020FFF745
:1005E000B1FD0028B7BF012302236FF00B0085F88F
:1005F0003430A8BF85F83430DBE71378EB70EDE7D3
:100600001379002BD3D05379002BD0D01288FB2A3A
:10061000CDD863881B3B9BB2E02BC8D81A2AC6D919
:100620002368A2886B60424B9A80D7E71378EA7BF5
:100630009342BCD3EB72D1E71378EA7A9342B6D8EF
:10064000EB73CBE71378EA7A9342B0D86B74C5E7C3
:100650001378002BABD05378013BDBB2F82BA6D834
:10066000138892786B82334B9A70B7E7107868756D
:100670000FF088FDB2E71378002B98D02B76ADE70A
:10068000012000F043FA237808B1012B8FD9AB7316
:10069000A4E71388AB81A1E71378AB759EE7072029
:1006A00000F034FA10B92378012B80D9072000F02C
:1006B0002DFA18B12378002B3FF479AF2378EB752E
:1006C0008CE71378082B3FF672AF2B7486E71388FC
:1006D000FF2B3FF66CAFAB7280E713786B767DE74C
:1006E00013780E2B3FF663AFAB7677E72368124A99
:1006F000C5F81E3063685360238913816EE7137851
:10070000EB766BE713786B7768E713782B7765E701
:1007100013785A1E092A3FF64AAF85F828305DE75C
:100720004FF0FF3045E76FF02C0042E7080A002148
:100730000C0A00211A0A0021260A0021F8B50D46EC
:10074000064630B329B311F0070422D1124F97F8AF
:100750003430012B02D16FF00B00F8BD032B02D116
:100760004FF0FF30F9E700F07DF80028F8D0284678
:10077000FFF7E8FC0028EEDB0FF010FD3046F96AC9
:1007800008F0CAFCFFF792FE0323204687F83430B6
:10079000E3E76FF01500E0E7080A002110B5074C09
:1007A00094F83430032B03D108F0D2FC09F0CEFDCD
:1007B00016F03CFA002084F8340010BD080A00212D
:1007C00050B1074B03F1140253F8041B934240F855
:1007D000041BF9D1002070476FF01500704700BF6F
:1007E000D642020108B508F021FC03490320BDE808
:1007F000084000F083B900BF2101000108B508F0EE
:1008000029FC03490220BDE8084000F077B900BF89
:10081000FD00000108B5094B93F82A305BB108F0E0
:1008200059FC0749012000F069F906490020BDE89C
:10083000084000F063B908F02FFCF2E7080A002135
:10084000B9000001D900000102680020014B1A60C4
:10085000704700BF400A0021014B1B68184700BFCA
:10086000400A0021024B1868003818BF0120704769
:10087000400A0021F7B504462D4E071D2C4837606D
:1008800009F084FD0228054606D12949204615F0C5
:1008900005FA284603B0F0BD042842D13378092B6D
:1008A0000AD0262B1ED03146204615F071FAB0F53D
:1008B000817F2DD3722112E005213E2015F0C0F971
:1008C0000028F0D1F37801A93279684643EA02237F
:1008D000ADF8003015F028FE0028CFD053210820B5
:1008E000FFF7A8FD1A213E2015F0AAF90028DAD159
:1008F0007368694601A8C3F30F23ADF804301123D0
:100900008DF8063015F02AFE0028B7D06521E6E7FD
:100910000028B3D0A178207815F092F90028B8D13A
:10092000ACE70828B5D10249204615F0EFF9B0E749
:10093000440A0021074B4FF0FF3141F6FF72C3E933
:10094000001205490022C1E900221F21C3E9021259
:10095000704700BF00000021480B00213F280CD841
:1009600001380B4BC0F3421200F01F0053F8223045
:1009700023FA00F000F001007047FF2806D040384D
:10098000044BC0F3421200F01F00EFE70120704754
:1009900000000021480B0021074B01460068496810
:1009A0001A4603C240F48C221A6041F0107242F4DD
:1009B000FF625A60704700BF000000210246024BF0
:1009C0000068516803C37047480B00210246024B80
:1009D0000068516803C3704708000021431E38288F
:1009E000DBB21FBF064A590903F01F0302EB810265
:1009F0001DBF9068D84000F001000020704700BF84
:100A000000000021014B1860704700BF500B00210F
:100A100010B5FFF78FFF16F04BFB034B04461B6826
:100A200003B19847204610BD500B00210A8870B5CD
:100A300095B2C67CC2F30E020488023602F1180396
:100A40003444C35AA4B233442344013BB3FBF4F30C
:100A500003FB0422438892B29342044B8BBF2B408A
:100A6000AB4313439BB20B8070BD00BF0080FFFF00
:100A70004A1E062A08B50346084604D84FF4D17129
:100A80001520FFF7D7FC094A914202D940F2A31181
:100A9000F6E711B903B1196008BD2BB11B6800223C
:100AA000C3E901211A1D1A600430F5E7FAFFFF7F40
:100AB00010B5114B00EB41041A786389B3FBF2F3D4
:100AC00003FB0223013A1A44B2F5706F0279807871
:100AD00028BF00231A440B18B2FBF0F100FB1121D0
:100AE0005B1AB3FBF0F100FB113313446FEA43438D
:100AF0006FEA5343638110BD540B0021024B03EB9B
:100B000080035960704700BF540B0021034B03EB77
:100B100080035868003818BF01207047540B00212B
:100B20002DE9F04F10F0070A85B0054604D040F2D9
:100B300061111720FFF77EFC534F04464FF0010B65
:100B400007F14C06B146B04657F8043B8DF80BA0B0
:100B50003BB101A898479DF80A30082B01D9E8213C
:100B6000E7E79DF80B1041BB05B131604F4506F139
:100B70000406E9D1002D6ED00022DFF81091122773
:100B8000964689F8002058F827A0013FBAF1000FD7
:100B900054D09AF804609AF802C0FF2E5FD039460C
:100BA0000023481C37D19C44BCF1FF0F3ED90AB149
:100BB00089F800E040F22711BBE79DF80AC04B1D01
:100BC00060465A0004EB4303022838BF0220441E4B
:100BD00040422344BDF808406444CCF1000C03407B
:100BE000013C04EA0C04B4F5803F01D3F821A0E7EE
:100BF00075B19A1A32609170148082F803B09DF832
:100C00000C00107101984FEA104C1081A2F806C038
:100C100004FB0134AAE758F8210028B190F804B089
:100C2000B34504BF80781B180139BAE7DBB2E6454B
:100C30008AF804303CBF5FFA8CFE01227B1CA2D1F3
:100C40000AB189F800E0122640F6FF6A58F82670CB
:100C5000B7B9013EFAD2601B05B0BDE8F08F0023A2
:100C6000E5E707EB410309F101093846A3F80AA0BB
:100C7000FFF71EFF5FFA89F1BB788B42F1D8E8E7F6
:100C80004FF00009F6E700BF580B0021540B00217C
:100C900038B54FF6FF7302460380184B03EB810310
:100CA000186DA8B184780379B3FBF4F104FB113318
:100CB000DBB2194600EB4105B5F90A50002D0EDBF9
:100CC0000131B1FBF4F504FB1511C9B28B42F1D12E
:100CD000002038BD6381BDE8384015F023BE00EB2D
:100CE00041046389C3F30E031380C278002AF1D153
:100CF0004FF4D5711720FFF79DFB00BF540B002167
:100D00001C4B03EB810370B51C6D054644B3030413
:100D100004D54FF4DC711720FFF78CFB0146204609
:100D200015F0E3FDFF28014604D02046BDE87040E1
:100D300015F0F8BDA078B5FBF0F300FB1353DBB260
:100D400019460A1D04EB4206B6F90260002E09DBC3
:100D50000131B1FBF0F200FB1211C9B28B42F0D1AC
:100D6000002070BD8B4201D00023E37004EB4202EF
:100D70005580DAE7540B0021094B03EB8103014650
:100D800010B51C6D204615F0B0FDFF28014604D0BB
:100D90002046BDE8104015F0C5BD002010BD00BFC5
:100DA000540B0021F8B5104B074603EB81030146B5
:100DB0001C6D204615F099FDFF28054611D0E288EC
:100DC000238953EA024606D00146204615F0AAFDC3
:100DD00001463846B04720462946FFF769FE002005
:100DE000F8BD0520FCE700BF540B002138B50E4BC1
:100DF0000446827903EB8203186D08B9052038BDDB
:100E00008278E1799142F9D24B1CE37100EB410306
:100E10005D89B3F90A30002BF3DBA58015F082FD64
:100E200020600020EBE700BF540B002170B50446A2
:100E300010F003000E4603D04E211820FFF7FAFAF7
:100E4000FFF716FE054624B1034831460460FFF75C
:100E50000FFE284670BD00BFF00B00212DE9F14FB9
:100E6000DFF870B01E4607460D46DBF800309046AE
:100E70009DF828A09DF82C901BB960211820FFF741
:100E8000D9FA52460921404615F0AFFB4A4684B2D2
:100E90000921304615F0A9FB81B2DBF8000021449E
:100EA00015F0F7FC386018B9286001B0BDE8F08F84
:100EB00004445346414609222C60386815F058FB1B
:100EC0004B4609223146286801B0BDE8F04F15F0C5
:100ED0004FBB00BFF00B002170B50E46044615F065
:100EE00097FB0546304615F093FB044B2A18214624
:100EF0001868BDE8704015F0F1BC00BFF00B002190
:100F0000024B186808B115F0B8BC7047F00B00210F
:100F10001F2AF8B5044613460ED89200033222F079
:100F20000303B3F5803F2DD2184DACB1A00710D00C
:100F30005F210920FFF77EFAFF2B4FEA420204D916
:100F4000FF339A42A8BF1A46E8E77C2AB8BF7C2242
:100F5000E4E729706C602B8122F00302282301272B
:100F6000120403FB01F06B680025120CEEB2B142D3
:100F700000D8F8BD14B126181F705E60104401350A
:100F80002833F3E74FF0FF30F3E700BFF40B002105
:100F9000154A002170B553681578C8B2854203D848
:100FA000AB210920FFF746FA1C461846013114F818
:100FB000286B0EB92346F0E70021997001241289AD
:100FC000996103F126055C709208D96103F11E0452
:100FD000596824F8022FA54243F8041F1144F8D1A0
:100FE00000234361037070BDF40B00210A4B1B8981
:100FF000B3F5FF7F4FEA930006D25A089B1A9BB2C3
:10100000984238BF18467047B3F5EE6F01D8FF22FB
:10101000F4E740F27263F3E7F40B00214B782DE91B
:10102000F04106460C4602F0040702F0FB05E3B16E
:10103000A5BBFF23A3707B0804EB57073A7D032A67
:1010400002D1022D18BF0133E2180121117503F1FD
:101050000C01002204EB830324F811205B68A270CA
:1010600030463360B280BDE8F081002DE1D101232C
:1010700001F11E028D6120464B7004F1260C1A4BC3
:10108000CD611B8949689B0822F8023F944540F8CE
:10109000041F1944F8D100236361CAE7D1F8048022
:1010A00014220021A018617014F0ACFC0E4B1B89B7
:1010B000B3F5FF7F0FD25A089B1A9BB208EB0301CE
:1010C000C4F804802384A1606284C4F80C80A384E3
:1010D0002161E284ADE7B3F5EE6F4FF0FF02EBD98B
:1010E00040F27263EAE700BFF40B00212DE9F843F8
:1010F00005460C46F7200521914615F076FA061EA6
:1011000021DB1DB906FB04F0BDE8F88315F00307E9
:1011100003D098211920FFF78DF9DFF83080C8F847
:101120001050A8F81460BBB29C42EBD9B8F8145028
:101130004B46D8F810000522F72107FB05000137C0
:1011400015F016FAEFE74FF0FF30DDE7080C00214D
:1011500007B5CDE900230B4603490246081D15F0EB
:101160003FFD03B05DF804FB200C002113B5064CD5
:10117000CDE900230B46024604F1080104F10C00FE
:1011800015F02EFD02B010BD200C0021144B0122E1
:1011900000214FF0FF309A60C3F80012C3F8080333
:1011A000C3F80015C3F804259A60C3F808034FF488
:1011B0008040C3F80015C3F8042503F5805341F6B9
:1011C000F8720849C3F80825C1F88000BFF34F8FB3
:1011D000BFF36F8FC1F88001C3F80825704700BFC7
:1011E00000E0004100E100E08C463422064B00B5EF
:1011F0000CF8032B8E4607CBCEF80300CCF8041076
:10120000CCF808205DF804FB3C0C002110B5154C0F
:1012100010F016F90FF07EF90021636A608C984790
:10122000237E9BB9104B628C93E803000AF0DEF832
:10123000E36A18880AF00EF8636B94F8301094F89B
:1012400031009847002384F8383010BD94E8070037
:1012500004F10C0383E80700044904F1190017F0B6
:101260007FFDDFE7300C0021580C0021E91100015F
:10127000034B93F8383003B97047FFF7C7BF00BF7F
:10128000300C002140F29D41062008B5FFF7D2F84E
:1012900008B5094B93F83820022A07D1DA7A42F0D0
:1012A0000102DA72BDE80840FFF7B0BF40F24F21FB
:1012B0002720FFF7BFF800BF300C002138B5374DAD
:1012C000044695F828300BB1C3070ED4012918D86D
:1012D0002B6C20469847A0B195F8300088B995F856
:1012E000282082B98CB9204638BD6B8F1807EDD500
:1012F000EA6B137803F00303032BE7D1D378022BB7
:10130000E4D1012038BD002CEED195F844400CBB4F
:10131000E86C17F07DFCA0F101002B6DB0FA80F0B5
:10132000400923B395F828206B8F62B19A070AD53C
:10133000EA6B137803F00303032BE2D1D078023871
:1013400018BF012038BD002BDBD1204380F0010005
:10135000C0B238BD95F84530032B10D1EB6BDB786C
:10136000022B18D0A86C15F0D2F90446D0E7B5F8D6
:101370005430002B14BF002000F00100D2E7A86C0D
:1013800015F0C5F904460028C2D108F03FF980F0F5
:101390000100C4B2BCE70024BAE700BF300C002152
:1013A000F8B52A4C0646E56A94F85C3095F8942026
:1013B000E76C03EB820095F87510A765FF2804D150
:1013C0001EB995F874308B4226D00FF0E7FC95F8E3
:1013D0009430002B34D0206E10F04AF994F8283065
:1013E000D5F8F020003B216E626718BF0123D5F8C5
:1013F000F420A06D84F87C30A2670FF051F896B10C
:10140000A88E0FF03FFC002095F8741010F02CFA15
:10141000022384F83830F8BD002ADCD1384610F0B9
:1014200027F90FF077F895F875302A8F033B012BD9
:101430008CBF00202820104480B210F0BBF9DFE7F9
:10144000A06D10F015F90FF065F8D8E7300C002109
:10145000F0B5844C002383B0E56A8DF8053095F82B
:10146000942094F85C3095F8741003EB8203FF2B02
:1014700004D118B995F875308B4202D0FF200FF0D7
:101480008DFC95F88A30032B00F2E780DFE803F04B
:10149000021D837394F88B307348ADF80630A5F8BD
:1014A000643008F08DF8002840F0A8800DF10502A6
:1014B0000DF10601A06C15F0D2F80746E06320B1EB
:1014C00095F8CF30002B00F0AC80684B1F46E363EB
:1014D00095F88B203B78D20003F0030603F0F3036A
:1014E00002F00802032E43EA020395F88C204FEA2B
:1014F000820202F0040243EA02033B705ED0A06C59
:1015000015F005F9002840F0818008F07FF880F0A0
:101510000103E06B1B01DAB23B7823F010031343A5
:101520003B7043781BB195F89330002B51D110F0EC
:101530009FF80EF0EFFF08F0F7FF032E01D100280F
:1015400068D1E88E0FF09EFB95F8751001200125FB
:1015500010F08AF9E06B84F88D5017F059FBE36BBB
:1015600084F838501B7884F8440003F0030384F8AF
:10157000453003B0F0BD3C4808F022F8002862D0A6
:10158000E76BFB781B2B15D1012105F110000FF043
:101590004DFCE76B0EE0B5F864300DF105020DF17E
:1015A0000601A06CADF8063015F059F80746E06367
:1015B00000284DD0012384F88C3089E7FA78022A7C
:1015C0002CD0A06C15F0A3F80301E06BDAB23B78E5
:1015D000A3E7206E10F04CF894F82830D5F8E820F6
:1015E000B3FA83F3E16B62675B09D5F8EC20206EF8
:1015F000A26784F87C300EF017FF9CE70121E76BAF
:1016000085F88510FB781B2BD4D1BEE7E06B102248
:101610003B7882E7012012F03DFC92E73846002239
:101620007BE79DF8053033B1BDF8062001237A70C1
:1016300084F88C304CE7038001218370E06B17F055
:10164000D7FAE76BF0E740F2FB212720FEF7F2FE26
:1016500040F2F1212720FEF7EDFE40F2093127206C
:10166000FEF7E8FE300C00216C0C0021B80C0021C4
:101670002DE9F047414C82B094F83830012B76D1F7
:10168000E66B07465FFA83FA8846304696F8009084
:10169000E56A17F0B9FA304609F0030917F0B0FA15
:1016A000304617F0B5FA95F884307678002B38D1AB
:1016B000B9F1030F48D0002E18BF4FF0020A95F879
:1016C000943085F88AA0F3B1E36A94F8282093F85F
:1016D0007530003A03F1FF3318BF0122DBB284F802
:1016E0007C20D5F8F020032B6267D5F8F420A267A0
:1016F00094F85C2040D822490020CB5C0090012067
:1017000020490EF025FEB8F1010F05D127B9394661
:101710003846FFF7D3FD28B302B0BDE8F047FFF726
:1017200075BD638F0021042043F0040385F8841005
:101730006387636A984794F82830002BB8D0B9F1D2
:10174000030F85F886A0B6D195F88A303BB9638F30
:101750000220E16B43F002036387636A98474FF00E
:10176000030AACE702B0BDE8F047FFF719BE40F24C
:1017700004512720FEF75EFEFFF784FD300C0021A8
:1017800044370201940C002170B50D4B0D4C0E4AEC
:101790001A6094F838301BB1F4212720FEF74AFE76
:1017A00003F0FF0206460D46227609F017FE0121DE
:1017B00004F1880017F01CFAE664256670BD00BFCE
:1017C0006C000021300C0021C4210001074A10B533
:1017D00092F8383013B10C24204610BD03F0FF04FA
:1017E000147609F0FBFD204610BD00BF300C00212F
:1017F000024B012283F88E20704700BF300C00217D
:10180000F0B585B0BE4C02AD85E8030094F8381001
:101810000A98002940F06C81002B18BF002A00F0C4
:101820006781B0FA80F14909002800F061812364E2
:1018300004F12803606384F88E1084F8301084F873
:101840008F1084F8311084F88D1084F88C10618723
:101850006184626295E8030083E80300E56A0FF0A3
:1018600017FB0EF057FE95F97C000FF053FCAE6AA3
:10187000286A0FF055FC30460FF0DEFE95F8A40004
:101880000FF058FC94F82860002E00F0A68017F0A6
:10189000CAFF014695F8752001209C310FF074FDB8
:1018A000984B994E18680FF0CDFED5F8F800D5F892
:1018B000FC10D4F82CC0D5E905239CF87470A26400
:1018C000C4F89030D5F80021D5F804310FC6D5F80A
:1018D0000831D5F80C21C4F87D309CF88E30C6F85C
:1018E0000D20A3F12602012A40F28B809CF88F2064
:1018F000262A00F08680213B012B40F2E580242A35
:1019000000F0C380032F08BF042705F13C063946C9
:10191000304617F0A9FA394616F0E1FDB5F848301F
:10192000024695F875103046934228BF134684F856
:101930008B3017F04EFA95F8751095F894700429CD
:10194000B5F8506008BF032116F0C9FD0FB9043087
:1019500080B2864228BF0646F6B284F8946008F04A
:10196000E3FD002840F0858094F8282084F85C602E
:10197000002A60D195F89330D3B195F874300121E5
:1019800095F87E00013B84F87C10D5F8E8108000C3
:10199000DBB26167C0B2D5F8EC10032BA16700F28F
:1019A000AC805A490092FB22CB5C57490EF0D0FC28
:1019B0000120FFF74DFD0023B5F8880095F8A4201D
:1019C000A360C4E90033AB6F298860802180227155
:1019D0000BB101221A6005B0F0BD17F024FF95F895
:1019E00074204B4B014630464A4E33F8123003F513
:1019F000FA73A6FB036301EB931183310FF0C4FC70
:101A00004EE794F82830002B3AD19CF80A32002B8C
:101A10003FF47BAFFA1ED2B2012A60D9DA1E012A46
:101A20005DD9012B18BF012F0CBF01230023C3F187
:101A30000203DFB269E795F89430B3B1D5F8F0301E
:101A400001206367D5F8F43084F87C00A36795F82B
:101A50007530013BDBB2032B4FD82C493246CB5CAF
:101A60000021009128490EF073FC0120FFF798FC3B
:101A7000A1E708F05FFDB04238BF3046C6B273E759
:101A80009CF8A232002BC5D13FE794F82830002BF8
:101A90003FF438AF9CF86D209CF82E3113405A0764
:101AA0001DD413F001021CD19B077FF52EAFFB1E46
:101AB000DBB2012B13D9A7F10107B7FA87F77F092A
:101AC000C7F10207FFB220E7242ADED094F82830BD
:101AD000002B3FF417AF9CF82E315907E1D50427AE
:101AE00013E7FB1EDBB2022B2CBF174604270CE7C3
:101AF00040F283112720FEF79DFCFFF7C3FB00BFD8
:101B0000300C00216C000021940C002144370201AC
:101B1000D0390201D34D621008B5124B93F838202A
:101B200092B193F8282022B993F83830012B14D1C0
:101B300008BD93F83820022A0AD1DB6AD3F8D8010D
:101B4000BDE808400FF002BEBDE80840FFF75EBBED
:101B500040F231212720FEF76DFC40F22D21272095
:101B6000FEF768FC300C0021FFF750BB014B1876E4
:101B7000704700BF300C0021014B93F88D00704777
:101B8000300C0021044B93F88C0018B993F8230013
:101B9000C0F30010704700BF300C0021024B93F8D7
:101BA0002300C0F3C0007047300C0021014B93F8B4
:101BB0008F007047300C00212DE9F0433F4D83B07A
:101BC00004460F46AE6DD5F82C80304617F01CF851
:101BD000304617F015F8304617F01AF814F00109DE
:101BE000767815D00023A00785F8953036D498F87C
:101BF0008C10D8E93C320131013388F88C1042F165
:101C00000002C8F8F030C8F8F42003B0BDE8F08353
:101C100095F89530032B4CD8DFE803F01E0702023D
:101C2000A3073AD403B0BDE8F083A207FAD52B6D21
:101C3000002B39D0B5F854201846A96D033213F0A3
:101C40004BFF002203463146D5F89000AB6503B048
:101C5000BDE8F04314F09CBDA107E3D52B6D1BB389
:101C6000B5F854201846A96D033213F035FF0DF175
:101C7000020201A9A865D5F8900014F0F4FD0198BE
:101C800014F0D7FD012238603146D5F8900014F0E9
:101C90007FFDB9F1000FC5D0A9E7D5F8900003B0DA
:101CA000BDE8F04314F0DBBD40F2F6412720FEF71B
:101CB000C1FB40F2A2412720FEF7BCFB300C002103
:101CC0002DE9F04FC14C85B0002394F83820E56A27
:101CD000022ACDE9023340F06482A66D07468846A9
:101CE000304696F800B016F08FFF8146304616F069
:101CF00087FF8246304616F08BFF767895F8943051
:101D0000002F50D0002B40F0A081A4F85460002E8A
:101D100040F0AA81002095F88B20638C02F001022C
:101D2000206543F400735245638400F00681D4F8C3
:101D30002CA09AF88A20C2B1022A00F0D781002193
:101D400094F828308AF88A1023B19AF88630002B4C
:101D500040F0BF819AF88530002B40F08E819AF8D0
:101D60008B3001338AF88B30638C95F88C2043F4E8
:101D700000634FF0000A0BF0030B02F001026384D2
:101D80004A4500F0E48008F0CFFBBBF1030F02D11D
:101D9000002840F0538195F89330002B00F0FE802E
:101DA0000026B14626E0002B40F04C8194F88F309D
:101DB000013384F88F30638C43F48063638495F837
:101DC0007530033B012B04D908F0AEFB002800F06E
:101DD0008F80012012F05EF80EF062FF042895F863
:101DE000939000F00D81B9F1000F00F0868000267D
:101DF000B146B24694F82830D5F8E820B3FA83F318
:101E000095F87E0062675B09D5F8EC20800084F8C5
:101E10007C3095F87430C0B2A267013BDBB2032B73
:101E200000F2C4816A4A6B49D35C00220092FB2213
:101E30000EF08EFAB8F1000F07D194F88F10012040
:101E4000FFF73CFA002800F0C9800FF06BFD002E70
:101E500000F010814FF0010903A90320FFF7ACFE49
:101E6000638C5A0607D4636A002140209847638C2C
:101E700043F040036384BAF1000F09D094F828308E
:101E8000002B40F09780B4F809300133A4F80930F2
:101E9000002F47D0B4F805300022013384F88F209A
:101EA000A4F805304C4809F0C3F9029830B114F099
:101EB000C0FCE16A0022027208F0B2FA039B33B15F
:101EC000E16A00221A720C22039808F077FAB9F13D
:101ED000000F2DD1638C1B0607D4636A494680200E
:101EE0009847638C43F08003638405B0BDE8F08FAE
:101EF00095F89330002B7FF47AAFB8F1000F40F0E3
:101F0000928094F88F100120FFF7D8F9002840F054
:101F10008A804FF00009CA460020FFF799FA9FE730
:101F20004FF00109B4F807300133A4F80730B9E7DE
:101F3000FFF76CF905B0BDE8F08F95F88C20BA4634
:101F40000BF0030B02F001024A457FF41CAFBBF11A
:101F5000030FD4F82C9040F0AC8043F48053012060
:101F6000A16D6384638F89F8840043F00103638764
:101F7000636A984799F88C30013389F88C30002EC9
:101F80003FF401AFD9F8F0300133C9F8F030D9F897
:101F9000F43043F10003C9F8F430F4E6B8F1000F6F
:101FA0002AD194F88F100120FFF788F920BB4FF059
:101FB0000009B1E7B4F80530B4F80710B5F8882087
:101FC0000B4313433FF464AF5DE700BF300C0021C7
:101FD00044370201940C0021580C0021002E9BD0A4
:101FE00003A90120FFF7E8FD0020FFF731FA03A95C
:101FF0000220FFF7E1FD33E7B9460FF093FC2FE72E
:102000001B2E7FF6F0AEB9F1000F6CD1B8F1000FC6
:1020100009D194F88F100120FFF750F9824610B9CA
:102020004FF0010978E70FF07DFC638C59063FF50E
:1020300077AF4FF0000A4FF0010914E7012011F0CB
:1020400029FFA8E60EF0CEFAB0E60EF08BFA0028D3
:102050007FF45BAED6B395F88C3003F001034B45AB
:1020600000F09480A4F854603146D4F8900014F045
:102070006FFB50E64FF00109F2E600218AF8851067
:1020800007F0AEFA0021002800F09780638F082047
:1020900043F008036387636A9847DAF8E83001334E
:1020A000CAF8E830DAF8EC3043F10003CAF8EC3053
:1020B00055E6BBF1000F3FF45DAF4EBB99F88C3095
:1020C000013389F88C3008F02FFA64E6A4F85460E4
:1020D00020E6638F10208AF8861043F01003638790
:1020E000636A984736E60026B24683E602A9A06CEA
:1020F00014F0D7FA00285BD0DAF8E8300133CAF8D8
:10210000E830DAF8EC3043F10003CAF8EC3016E6B8
:1021100043F4805399F8949063840EF0C1FD042831
:1021200094F8943007D1B9F1000F0CBF1F221B2285
:10213000934228BF13469E421CD8236D1BB394F8CC
:102140008E90B9F1000F27D108F0EEF995F8936061
:10215000002E7FF44FAEB8F1000F08D194F88F1025
:102160000120FFF7ABF8814600283FF439AF0FF0AC
:10217000D9FB6FE694F83030012043F0100384F867
:10218000303011F087FE08F0CFF904E6012384F81F
:102190003130FFF73BF8A8E6636A0021202098471A
:1021A000F1E740F28B512720FEF744F9FFF76AF878
:1021B00040F23B412720FEF73DF940F252412720F3
:1021C000FEF738F991120001C11C000171160001DF
:1021D0007112000106220B4603F8032BB0F809C068
:1021E000C27AA1F803C09A70704700BF4FF42E71F5
:1021F000322008B5FEF71EF990F8DE2012B902F081
:10220000FF00704710B5363882B00C4604F0D8F99C
:1022100018230420237002B010BD00BF70B5002841
:1022200065D0437A04460D46002B3FD000214089FB
:10223000FEF7A2FD064600285ED0008807F082F96E
:1022400000213088FEF7AEFD00285AD194F8546082
:1022500094F8A6302BB194F8A7301E43002384F8DD
:10226000A630204604F0ACF9B30730D113212B4639
:1022700004F10902293403F8031BD2F800C010321C
:1022800052F80C6C103352F8080C52F8041CA2429D
:1022900043F810CC43F80C6C43F8080C43F8041CCA
:1022A000EBD1117800221970AA7170BD036DD0F8BE
:1022B0000E20C3F80320428AA3F80720437B026D57
:1022C00003F0FD03003B18BF01239370BEE726F027
:1022D000040600222046114684F8546004F04CFFA6
:1022E0000028C3D140F221313220FEF7A3F840F29A
:1022F00001313220FEF79EF840F20D313220FEF718
:1023000099F840F211313220FEF794F8044B002284
:102310001B68A3F8212183F8232183F870207047DC
:10232000C80C002108B507F0BFFD034B18700FF073
:1023300087F8032008BD00BF1000002108B507F092
:10234000B3FD024B024601201A7008BD10000021A7
:1023500038B5114C20686C3003F05EFA656803F004
:102360000BFA63682860186858B103F033FA68B153
:102370000FF07EF900200FF01DFA042263681A7135
:1023800038BD40F2EC413220FEF754F840F2EE4105
:102390003220FEF74FF800BFC80C002108B507F047
:1023A00083FD04490246044B48681A7003F0ACFAF6
:1023B000012008BDC80C002110000021F0B5524CCE
:1023C00000220E4683B02368054641F27070196DF5
:1023D0005A72CA69B1F800C0A3F80AC0A2F57A7CA3
:1023E000844575D94948A0FB0202C2F38F221A84A2
:1023F0008A8C5A84CA8C9A844FF47F42DA844FF6CE
:10240000FF721A85002D49D00121304616F0F5FAE9
:102410003278D209236893F8481009B1002A47D1CD
:10242000002159611983207B082859D003F10E023D
:1024300003F10D0107F074FB00285FD023685A7B7D
:1024400003F11A0742F002025A73002D3AD103F148
:10245000780002683A608288BA8093F95810186D43
:1024600007F0F8FC20682A4916F071FC2368294916
:102470001A6D1088A3F8330003F12A0092F8962011
:1024800083F8352016F06CFC0221206805F01EF858
:1024900020686C3003F0C0F903B0F0BDA068694655
:1024A00016F073F9A36868461A78C2F38012B1E790
:1024B000427902F0C002402AB2D102685A61828891
:1024C0001A83B0E70021304616F097FA2368C0E778
:1024D0001148A0FB0202920902F5506292B286E70F
:1024E00093F87E109A6FB3F87C0059730021C3F8FB
:1024F0000E205882C3F81A10D983AEE741F2044186
:102500003220FDF797FF00BFC80C00215917B7D143
:102510001D220001D5210001D34D621040F29231FD
:10252000322008B5FDF786FF10B504788CB004F0B2
:102530000F0402A9224603F0A9FC07F0B5FC234AC8
:10254000042C107002D003200CB010BD204C039955
:10255000236891F800E093F878C0E645F3D191F84C
:1025600001E093F879C0E645EDD191F802E093F8E7
:102570007AC0E645E7D191F803E093F87BC0E645E1
:10258000E1D191F804E093F87CC0E645DBD191F805
:1025900005C093F87D108C45D5D193F87E309DF819
:1025A00019109942CFD17F280DD04FF07F0C0090A9
:1025B00002A9606882F800C0237C227B03F0D0FB74
:1025C00003200CB010BDFFF7A9FF00BF10000021D1
:1025D000C80C00210E4A536810B5197902290CD98C
:1025E000197908290ED8197952690A4B92680B4457
:1025F000BDE8104052F82330184741F2AD41322077
:10260000FDF718FF41F2AE413220FDF713FF00BF86
:10261000C80C0021FDFFFF3F38B5194D6B681B79D1
:10262000022B28D82B680446027C83F8A4201A4485
:10263000C168996692F8242183F820214268C3F882
:102640008820037A022B0ED00EF022FC0FF0E2F865
:102650000DF0EEFD0B480EF0F5FF0B480EF0ECFF11
:102660000A480EF05DFD637C23B12B685B6E0BB1F5
:1026700001221A6038BD40F6FA013220FDF7DAFE79
:10268000C80C00217800002155555500D6BE898E12
:1026900070B53A4C064663681A79032A41D01A7914
:1026A000042A3ED0226892F8542092073ED1A568B1
:1026B000002D4AD0236893F85430002B3BD03EB114
:1026C000284616F060FAD8B9284616F077FAB8B955
:1026D00063681A79022A3DD91A79082A3FD81979EC
:1026E0006269274B52690B4452F8233098470C28F3
:1026F00026D86369DB68BDE8704053F8203018477E
:1027000063681A79022A2FD91A79082A31D81979D7
:10271000284662691A4B12690B4452F823309847D5
:10272000E5E7186803F056F80546C1E7186803F0B6
:1027300053F80546BCE741F2BB313220FDF77AFE83
:1027400041F2CE313220FDF775FE41F2B531322033
:10275000FDF770FE41F29B313220FDF76BFE41F236
:102760009C313220FDF766FE41F23B313220FDF70D
:1027700061FE41F23C313220FDF75CFEC80C0021C5
:10278000FDFFFF3F70B5154D2C6894F84830EBB154
:102790006FF00043D4E920129A4208BFB1F1FF3F25
:1027A00014D011F0C7F8D4E92023904299410DD3F9
:1027B0002E6896F8483053B907F0ACF9044611F08A
:1027C000B9F8074BE4FB0301C6E9200170BD012005
:1027D00007F062FA0028F9D02E68EDE7C80C002156
:1027E00040420F001B4B2DE9F04793F9008084B065
:1027F000B8F17F0F2CD0184C7F2281460F466668B7
:102800001A703379032B1AD03379062B14BF4FF08B
:10281000010A4FF0030A236803F142050EF040FA63
:1028200000903A462B4649463046CDE9028A257B40
:10283000019503F0B5F828B904B0BDE8F0874FF072
:10284000000AE8E7606804B0BDE8F04703F01CB890
:10285000FFF764FE10000021C80C002138B50546C2
:102860000C4606F0DBFC420704D4A37803F0E00337
:10287000402B0DD006F0D2FC830704D4A37803F0DC
:10288000E003202B04D0237803F03F03242B01D94D
:10289000002038BD0EF00AFA94F900206378002A6F
:1028A000A27802F01F0CB4BF4FF496711E2143EAC8
:1028B0000C2301FB03F3191AB1F5877FE8D3984283
:1028C000E6D80648294623880068A0F8213180F818
:1028D0002321BDE8384003F039BF00BFC80C0021F8
:1028E0002DE9F047334F84B0D7F8048098F80630CC
:1028F000002B4DD03D6804460E4695F8953033B90F
:102900000378002B14BF0223012385F8953098F833
:102910000430062BDAB23FD0072A0CBF4FF0020A70
:102920004FF0010A244B93F90090B9F17F0F3ED08C
:102930007F221A700EF0B4F9009005F1420332467E
:102940004046CDE9029A397B0191214603F028F8EF
:10295000F0B16378DB0618D5A1690220FFF77EFF8E
:10296000E8B100233A6882F896306369DBB15978A0
:10297000C1F3031182F8971059781B7801F00F0109
:1029800043EA0123A2F8983003E0786802F07CFF64
:10299000002004B0BDE8F0874FF0030AC2E7786872
:1029A00002F0B2FFF4E7FF2382F89730F1E7FFF778
:1029B000B5FD00BFC80C00211000002110B5044671
:1029C0008AB007F071FA194A2378107003F00F03E8
:1029D000072B02D001200AB010BD2046694603F043
:1029E000FBFA684603F0E0FB9DF80030002BF1D1C4
:1029F0009DF80130DB07EDD50D4C019922689DF85B
:102A0000110002F1780392F87E2015F01DFC0028D9
:102A1000E0D020680121A03015F096F9FF2168462A
:102A2000FFF75EFF0130C0B2D5E700BF1000002104
:102A3000C80C00212DE9F04304468BB007F034FAAE
:102A4000434A2378107003F00F03082B04D00125AC
:102A500028460BB0BDE8F0836946204603F04EFAE5
:102A60009DF80050002DF2D19DF8013003F00303D2
:102A7000032BECD1374F3E6896F84D308BB396F868
:102A80004E807B7B8BBB4FF0000906F1780396F8F4
:102A90007E2001999DF8110015F0D6FB10B9B9F10F
:102AA000000FD4D096F848203E6896F84190423600
:102AB000002A3CD19DF81200334602994A4601286B
:102AC0001FD015F0C1FB0028C1D038680121A0300B
:102AD00015F03AF97B7B9BBB21460120FFF76EFC8A
:102AE000B6E77B6893F80580CBE715F0F1FB082883
:102AF000C9D0A0EB08093873B9FA89F94FEA591916
:102B0000C3E74E7915F0A0FB80F0010306F0C00684
:102B1000DBB2A6F14006B6FA86F67609002BD2D0D3
:102B2000002ED0D00299404607F0EAF8CBE74046A5
:102B300007F020F90028BDD006464FF00109B9E79B
:102B40000EF068FE0DF074FB00237B73C4E700BF3A
:102B500010000021C80C00212DE9F04FDFF8DCA0A7
:102B600093469846827CDAF8003083B0012A044606
:102B700093F84850894685F001053DD00026374638
:102B80009AF80D203AB393F8542052072DD4636875
:102B9000B3B1DAF804305B79082B18D018460193EA
:102BA00006F0CCFE2843C5B2B7B19AF80F20019BBE
:102BB0006AB315F097FB002307468AF80F300BE045
:102BC000DAF80430186803F043F90028E1D11FB1A6
:102BD0009AF80E1009B300278BF8007089F800608E
:102BE00088F8005003B0BDE8F08F93F84D20002A1C
:102BF000CDD093F84E30CFE78268567906F0C00604
:102C0000A6F14006B6FA86F676093746B8E7A16817
:102C1000184607F075F80746DEE7A06806F098FF4B
:102C200007468AF80D000028D5D015F051FB08287A
:102C3000D1D0DAF804305871CEE700BFC80C0021BB
:102C40002DE9F04F044687B006290AD8DFE801F0E5
:102C5000522E0F0909090400B34D68688379002BCF
:102C600072D10EF0EDFB032007B0BDE8F08F0EF03F
:102C7000E7FBAD4A136893F854108F07F3D0506800
:102C800081790029EFD0A94D95F900107F2900F036
:102C90001C8202912146127B7F2442330192FF2243
:102CA000009202222C7002F0B3FFDCE79E4DA27C62
:102CB00029686868012A91F8483090F806A090F8D1
:102CC000079083F001035BD00027BB4691F854C006
:102CD0001CF0040600F0D78091F84D60002E5AD009
:102CE00091F84E80B8F1080F5BD191F84180002631
:102CF00040466FE08C4DD5E9003093F854205707DB
:102D00001AD5C279002A00F0C680626893F85B1079
:102D100016788E4200F0328193F85620012A00F096
:102D2000518193F84E30082B03D042799A4200F03B
:102D300049810EF085FB68688379002B40F0AF80F5
:102D4000C379002B8FD18CE72B6893F8542096071A
:102D500040F1CF80754A92F900107F2900F0B581CB
:102D6000029121462C7B42330194FF2400947F245E
:102D70001470062202F04CFF002309202B7473E725
:102D8000A268577907F0C007A7F14007B7FA87F79D
:102D90007F09BB469AE790F80580B8F1080F00F06C
:102DA000DD804046049306F0C9FD049B0590BBF10D
:102DB000000F40F0388129685E4691F854C091F8C0
:102DC00041800CF00402404692B3059A43EA020B9C
:102DD0005FFA8BF3626891F85BC092F800E0E64519
:102DE00000F0F3804FF0000B6A685279082A00F077
:102DF000308191F84EC0ACEB0202B2FA82F2520975
:102E00000492002E00F0B680B9F1000F0BD091F8BB
:102E10005630012B00F0D6804E4623B9049B53EA6E
:102E20000B0B40F0CF800EF00BFB2B6893F854C0D7
:102E30001CF0030F3FF417AF0EF002FBBAF1000FC6
:102E40003FF411AF2868A36800F14201A27C90F81A
:102E5000410015F0F9F916B9002800F01481334E3D
:102E600096F900307F2B00F03081029321462B7BB6
:102E70007F240122CDE90083D5E90030347042334C
:102E800002F0C6FEEFE690F80580B8F1080F88D191
:102E900091F84180CCE78379002B3FF4E2AE2B68B8
:102EA00093F85420960743D4D0077FF5DCAE510742
:102EB00000F1E6801D4B93F900207F2A00F0058188
:102EC0007F2002922A7B21461870FF202B680192F6
:102ED000002200904233686802F09AFE03206B687B
:102EE000DA79002A7FF4C0AE9B79002B7FF4BCAE68
:102EF000B7E6D1077FF5B5AE530700F1BE800B4BA7
:102F000093F900207F2A00F0E0807F200292214682
:102F10002A7B1870FF24D5E9003001920622423343
:102F2000009402F075FE9EE6C80C002110000021FE
:102F3000674A92F900107F2900F0C780029121466C
:102F40002C7B42330194FF2400947F2414700022D0
:102F500002F05EFE012309202B74C0E7626891F83D
:102F60005B0092F800C091F8418084452CD0B346B4
:102F700040460496002B6FD1002654E7567893F80C
:102F80005C108E427FF4C8AE967893F85D108E4246
:102F90007FF4C2AED67893F85E108E427FF4BCAE5A
:102FA000167993F85F108E427FF4B6AE517993F89C
:102FB000602091427FF4B0AE617C93F85A20914238
:102FC0007FF4AAAE0A204FE6404692F801E091F85D
:102FD0005CC0E6457FF406AF92F802E091F85DC070
:102FE000E6457FF4FFAE92F803E091F85EC0E64557
:102FF0007FF4F8AE92F804E091F85FC0E6457FF404
:10300000F1AE92F805C091F8602094457FF4EAAEE5
:1030100094F811B091F85A20ABEB0202D2F1000BF8
:103020004BEB020BE0E6A1684046049306F068FE15
:1030300029680646049B91F854C091F841000CF0B1
:103040000402002E3CD040F00208002A7FF4BDAEFE
:10305000EEE600220492D4E64231A368A27C15F089
:10306000F3F8002888D0B9F1000F85D02B6893F8C9
:103070005630012BA6D00026CFE60EF0E1F93EE750
:103080000EF0DEF916E72B6893F85520023A012A74
:103090003FF6E9AD002F3FF4E6AD0D4E96F9002066
:1030A0007F2A12D0029221462A7B7F24686842330D
:1030B0000192FE2200920122347002F0A9FDD2E5B5
:1030C0008046002A7FF481AEB2E6FFF727FA00BF00
:1030D0001000002108B5054B586802F0D5FB06F03A
:1030E000E3FE034B024601201A7008BDC80C002104
:1030F000100000212DE9F843724D00220746894651
:10310000AB68D5F8008018461A800EF0E9FA00285E
:1031100000F0B180AC68032F0646237800F0B7803A
:1031200023F02F03296843EA491343F00503237072
:10313000222363700B6D1B6AC4F80F300A6D936A0B
:10314000E374180A1B0C2075637592F87EC0108E0C
:10315000D36ABCF1000F40F0A280DFF86CC1ACFB79
:1031600000E0ACFB03C3800A9B0AE375C3F30723AB
:10317000A07541F270702376D369A3F57A7C8445FB
:1031800040F298805048A0FB0303C3F38F23002034
:1031900063F307001B0A63F30F20938C63F317405C
:1031A0001B0A63F31F60C4F81900D38C63771B0AF2
:1031B000A377D2F89730C4F81F3092F89B3094F878
:1031C000242084F823300B6D22F01F0293F8A230E4
:1031D00003F01F03134384F8243006F045F894F8F5
:1031E000243003F01F0343EA401384F82430AC6812
:1031F000D8F878302046C4F80930B8F87C30A4F804
:103200000D3098F87E1015F0D4FA2B6893F848200A
:1032100003F1420993F84180A2B393F85420520776
:1032200032D593F84D207AB393F84E0006F0A2FD04
:10323000044638B34FF0010823684146A868C0F837
:103240000330A388A0F8073015F0A6FA1F4BD3F877
:10325000043173B9052F12D12B68304621681A6DDD
:10326000C2F80A10A188D1811B6D83F80980BDE8DE
:10327000F8830EF0E5F80026032007F0BFF830468B
:10328000BDE8F8834C46D7E76B685879CEE723F062
:103290000F0343F0030323700C236370A8E7DFF8E8
:1032A00030C0ACFB00E0ACFB033CC0F347104FEA7E
:1032B0005C135AE70748A0FB03039B0903F550631F
:1032C0009BB264E7C80C00215917B7D100800041B8
:1032D0001F85EB51D34D621038B5154C236893F818
:1032E00054309B0718D1A568E5B12368FF2093F8F7
:1032F00020110DF053FD28460EF0BAF9236893F81B
:103300002031033B012B94BF282000200EF052FAFD
:10331000072263681A7138BD6368186802F05CFAA6
:103320000546E1E740F213513220FDF783F800BF74
:10333000C80C002138B51E4C0E20236893F82011CC
:103340000DF02CFD236893F854309B0724D1A56819
:1033500045B328460EF08CF9236893F82031033BDF
:10336000012B94BF282000200EF024FA2368681D4A
:1033700093F8205106F01AFC607348B1033D012D0B
:103380008CBF502555250CF037FF28460EF036FA35
:10339000636808221A7138BD6368186802F01CFA65
:1033A0000546D5E74FF4A0613220FDF743F800BF92
:1033B000C80C002170B50D4D0222D5E900031A7129
:1033C00003F002FF00B170BD2E68044606F16C00E8
:1033D00002F09AFA2868A6F8214186F8234186F877
:1033E0007040BDE8704004F047B800BFC80C002131
:1033F00010B50A4C06F058FD094A637B10701BB9E2
:103400000EF01EF8032010BD0EF004FA0CF010FFB1
:10341000002363730EF014F8032010BDC80C0021C4
:103420001000002170B52D4C0546236893F8232128
:103430005F2A2CD851092A4A565C93F8210100F0E2
:103440003F000DF077FE236893F958000DF062FEFF
:10345000FDB1236832460120996E0DF095FF236877
:10346000314693F89630022B14BFFF2040200DF018
:1034700095FC236893F85420920710D193F8953067
:10348000A568B3B12846BDE870400EF0F1B800263B
:10349000D3E73246AA2101200DF076FFDFE763680B
:1034A000186802F099F92368054693F89530002BC7
:1034B000E8D1681D06F07AFB60730028E2D0042E84
:1034C00014BF502455240CF097FE20460EF096F9B8
:1034D0002846BDE870400EF0CBB800BFC80C0021F4
:1034E00048370201F0B52E4C83B00646236893F8A6
:1034F00023215F2A30D851092A4A575C9A6E7ABB39
:10350000D3F888000EF022F9256895F854309A0710
:1035100003D595F89620022A33D05B072DD4636833
:10352000186816BB02F094FC63680646186802F03F
:1035300095FC024605F19A002568314695F89630CB
:1035400095F82051009502F0D9FD2268002382F8F9
:103550002071A37303B0F0BD9A6E0027002ACFD06C
:103560000120FFF75FFF2368CAE702F083FC0146F2
:1035700005F19A0002F0B6FDE7E795F89630012BC9
:10358000CDD1042F05D0394600200EF06DF9256805
:10359000C5E795F85930012B0CBF03210421F3E74F
:1035A000C80C00214837020110B50B4C637B63B98E
:1035B000A1680020FEF702FF23680022A3F8212162
:1035C00083F8232183F8702010BD0EF023F90CF04E
:1035D0002FFE00236373EBE7C80C002110B50E4CDF
:1035E000637B8BB920680121626800231171024658
:1035F000A0F821316C3082F8233102F00DF92068F7
:10360000BDE8104003F038BF0EF004F90CF010FED6
:1036100000236373E6E700BFC80C002107292DE9EA
:10362000F04F044687B00D461646406852D1002838
:1036300008BF002A0CBF4FF0010A4FF0000A72D0F9
:10364000002800F0D580627C012A00F0B180AB4FE9
:103650007B685879082848D00DF10F0104AA06F0BC
:103660005FFA002800F05E8104A99DF80F0016F0B3
:10367000BCF88246D7E9000890F8543013F00302F2
:1036800040F088805B0788F8062043D4002388F840
:1036900007309B4B1B6833B131462046984788F86A
:1036A0000800D7F80480636843B1617C3A6882F807
:1036B0007E10196891679B88A2F87C3098F80830D2
:1036C000002B00F03481A06808B1072D4FD007B05F
:1036D000BDE8F08F002800F08880627C874F012AC7
:1036E00079684FD048790828B6D16168607C16F0B7
:1036F0007CF87A68824661680532607C06F046F99B
:10370000D7F8048003460028B4D1A8F8060088F84A
:103710000800D8E7062D90F84D9000F2B28049EAF3
:103720000A00C3B2B3E7754FD7E9001091F85430DF
:1037300013F0030218BF012213F00403827105D0B5
:103740002378A3F10103B3FA83F35B09C37191F802
:103750009430002BBBD03B68D3F89000503016F06B
:103760004EF80028B3D17B6801221A72AFE798F8AF
:1037700005100829ABD0002BA9D006F007FA0123C9
:10378000FB73A4E7437903F0C003402BAAD17B7BF2
:10379000FBB9A7E7062D90F84C904FD849EA0A09E3
:1037A0005A0788F806907FF571AF90F84D90B6E70C
:1037B000427902F0C002402A7FF449AF4F4F7A7B32
:1037C000002A3FF445AF26B93A6892F82011012942
:1037D00060D0D7F8048014F07BFD7B6888F8050082
:1037E000587901233873BB7334E78246434F41E76E
:1037F000424FD7E9000890F854309A0745D1D14696
:1038000013F0040388F806903FF441AF90F84D9010
:10381000311E98F807B018BF0121BBF1010F02D08B
:1038200000297FF433AF6368002B7FF478AF002E5C
:103830003DD16378D9063AD5012328E7082D03D96D
:10384000002388F8063021E798F806B0311E18BF2B
:103850000121BBF1010F0DD061B14FF0000913F050
:10386000040388F806903FF412AF90F84D9098F852
:1038700007B0D2E762689AB149EA0A095FFA89F9A2
:10388000BEE7082D3FF602AFC2E790F84C9098F8DB
:1038900006B0DBE706F05CF97873002899D1D7E62B
:1038A000A6B96278D20611D54FF00109D7E7D8F84A
:1038B000000002F0CDFA10B1BBF1000F02D1B9F156
:1038C000000F14D0D7F804800123E0E6D8F80000F8
:1038D000019102F0BDFA1BEA000001991CD1B9F177
:1038E000000F0FD0D7E9000890F85430B7E706F082
:1038F00047F8D7F804800346C9E600BFC80C00218A
:1039000074000021019106F03BF881460199D7E946
:10391000000890F85430A2E78146D7E9000890F8F3
:1039200054309CE740F6A7313220FCF783FDB8F80D
:103930000630003B18BF0123C5E600BF70B5194E25
:103940008AB0054606F0B0FA3368174A93F8543047
:10395000107013F0060F16D12C782846694604F033
:103960000F04224602F092FA214600226846FFF731
:1039700055FE21466846FFF763F9737B044643B959
:1039800020460AB070BD0122962100200DF012FDE4
:10399000E2E70DF03FFF0CF04BFC00232046737371
:1039A0000AB070BDC80C00211000002110B5104CE9
:1039B00006F07AFA0F4A637B10708BB920680121F8
:1039C0006268002311710246A0F821316C3082F840
:1039D000233101F021FF2068BDE8104003F04CBD09
:1039E0000DF018FF0CF024FC00236373E6E700BF22
:1039F000C80C00211000002110B50F4C606801F0C8
:103A000083FF637B8BB920680121626800231171F9
:103A10000246A0F821316C3082F8233101F0FCFE1F
:103A20002068BDE8104003F027BD0DF0F3FE0CF058
:103A3000FFFB00236373E6E7C80C002110B5114CAF
:103A4000606801F061FF06F02FFA0F4A637B107087
:103A50008BB9206801216268002311710246A0F829
:103A600021316C3082F8233101F0D6FE2068BDE8A8
:103A7000104003F001BD0DF0CDFE0CF0D9FB00238A
:103A80006373E6E7C80C00211000002110B5134C49
:103A900006F00AFA124A00212368107003F1A00010
:103AA00014F052F9637B8BB920680121626800230E
:103AB00011710246A0F821316C3082F8233101F0F7
:103AC000ABFE2068BDE8104003F0D6BC0DF0A2FEAE
:103AD0000CF0AEFB00236373E6E700BFC80C0021C7
:103AE0001000002110B5144C606801F0CDFE06F006
:103AF000DBF9024620680021104BA0301A7014F048
:103B000023F9637B8BB9206801216268002311715E
:103B10000246A0F821316C3082F8233101F07CFE9E
:103B20002068BDE8104003F0A7BC0DF073FE0CF058
:103B30007FFB00236373E6E7C80C0021100000211F
:103B400010B500210320164CFFF7D4FA20B1032151
:103B5000206802F0FBFD98B9637BCBB92068012196
:103B60006268002311710246A0F821316C3082F89E
:103B7000233101F051FE2068BDE8104003F07CBC09
:103B8000012108460DF070FE092263681A7110BD0C
:103B90000DF040FE0CF04CFB00236373DEE700BF2A
:103BA000C80C002110B51C4C0C220121D4E90003E3
:103BB0001A7103F08BFC00210520FFF79BFA20B15E
:103BC0000621206802F0C2FD98B9637BEBB920683A
:103BD00001216268002311710246A0F821316C3086
:103BE00082F8233101F018FE2068BDE8104003F090
:103BF00043BC2368012093F820110DF035FE2368A3
:103C000001221B6D83F8962010BD0DF003FE0CF011
:103C10000FFB00236373DAE7C80C002170B5244C56
:103C2000236893F823215F2A29D85109214A565C39
:103C30009A6E42BBD3F888000DF088FD256895F890
:103C400054309A0703D595F89620022A20D05B07B6
:103C500003D595F89630012B1AD06368186802F0E6
:103C600009F9014605F19A0002F03CFA0022D4E974
:103C70000013A273062281F820611A7170BD9A6E3A
:103C80000026002AD6D00120FFF7CCFB2368D1E71D
:103C9000042E05D0314600200DF0E6FD2568DCE756
:103CA00095F85930012B0CBF03210421F3E700BF25
:103CB000C80C00214837020138B5234C63681868E6
:103CC00001F088FD00283AD063680A2205460021E9
:103CD0001A71206803F0FAFB22682B780520126D18
:103CE00092F8965005EA531505F001052946FFF7AD
:103CF00001FA48B10421206802F028FD20B12368B0
:103D00001B6D83F8965038BD637B8BB92068012109
:103D10006268002311710246A0F821316C3082F8EC
:103D2000233101F079FD2068BDE8384003F0A4BBE1
:103D30000DF070FD0CF07CFA00236373E6E74FF49E
:103D4000AB613220FCF776FBC80C002138B5174C6C
:103D50000521206802F0FAFC48B12368012093F89D
:103D600020110DF081FD0B2263681A7138BD0546E4
:103D7000606801F0C9FD637B8BB92068012162682E
:103D8000002311710246A0F821316C3082F82331F2
:103D900001F042FD2068BDE8384003F06DBB0DF036
:103DA00039FD0CF045FA6573E7E700BFC80C002148
:103DB000F0B52B4C83B0236893F823215F2A37D8C2
:103DC0005109284A575C9A6E002A35D1D3F88800E9
:103DD0000DF0BCFC256895F854309A0703D595F88A
:103DE0009620022A2DD05B0703D595F89630012B3B
:103DF00027D06368186802F02BF8636806461868D5
:103E000002F02CF8024605F19A002568314695F833
:103E1000963095F82051009502F070F90022D4E90F
:103E20000013A273052281F820711A7103B0F0BD4E
:103E30009A6E0027002AC9D00120FFF7F3FA236801
:103E4000C4E7042F05D0394600200DF00DFD25688C
:103E5000CFE795F85930012B0CBF03210421F3E77C
:103E6000C80C00214837020110B501291D4C6368B8
:103E700010D178B91A79082A2AD91A790C2A2CD89B
:103E800019796269184B52680B44BDE8104052F82A
:103E900023301847184601F037FD637B8BB9206843
:103EA00001216268002311710246A0F821316C30B3
:103EB00082F8233101F0B0FC2068BDE8104003F027
:103EC000DBBA0DF0A7FC0CF0B3F900236373E6E74F
:103ED00041F27D413220FCF7ADFA41F27E413220C1
:103EE000FCF7A8FAC80C0021F7FFFF3FF0B55A4CC9
:103EF00083B020686C3001F08FFC656801F03CFCF9
:103F0000636828601868002800F09C8001F062FC5B
:103F10000546002800F09B80236893F8A630002B0C
:103F200048D1D4E9000290F8A430034493F82471F6
:103F300080F82071137913B11379012B4BD190F8CC
:103F4000A520464B134418790DF0F4F8236893F834
:103F5000A420134493F82461022E3AD04DD8012EA8
:103F60004ED101F003FC31460CF018FF28460DF04D
:103F70007FFB314601200DF0EBF8012F31D1E81C19
:103F800005F014FE607328B140250CF035F9284681
:103F90000DF034FC62680821002320685171217300
:103FA0000321D3801372E38180F89530237411715B
:103FB00003B0F0BD236893F8542093F8A700196D5F
:103FC0000243C3F8101183F85420002283F8A6207E
:103FD000A7E70D20C7E7002102F0B8FBA8B12068D1
:103FE000ADE7681D05F0E2FD60730028D2D0033F05
:103FF000012F8CBF50255525C7E7F31E012BB0D9E3
:1040000040F2FA713220FCF715FA637B93B920680D
:1040100001216268002311710246A0F821316C3041
:1040200082F8233101F0F8FB206803B0BDE8F040CE
:1040300003F022BA01900DF0EDFB0CF0F9F80198B5
:104040006073E4E740F249413220FCF7F3F940F2B3
:104050004B413220FCF7EEF9C80C00214837020131
:1040600008B505F021FF044B18700DF0E9F9BDE823
:104070000840FFF73BBF00BF1000002110B50C4CFB
:1040800005F012FF0B4A637B10702BB90DF0D8F9C5
:10409000BDE81040FFF72ABF0DF0BCFB0CF0C8F8DC
:1040A000002363730DF0CCF9BDE81040FFF71EBF8D
:1040B000C80C00211000002110B50446FEF7ACFA30
:1040C000237A032B34D01D4A12683BBB92F8A530EB
:1040D0001B49013392F84B00A1FB034C0CF4FF7415
:1040E00004EB5C041B1B40FA03F4E40713D4013314
:1040F000A1FB034C2CF0010404EB5C041B1B40FAF5
:1041000003F4E00707D40133A1FB034121F00104CC
:1041100004EB51015B1ADBB282F8A53092F958002A
:104120000CF0F8FFFFF7E2FEBDE81040FEF72ABBF7
:1041300040F629113220FCF77DF900BFC80C0021A0
:10414000ABAAAAAA10B50446FEF766FA237A032B97
:104150004AD0012B51D039D82F4C304A216891F8E0
:10416000A53091F84B000133A2FB03CE0EF4FF7C87
:104170000CEB5E0CA3EB0C0340FA03FC1CF0010FEC
:1041800013D10133A2FB03CE2EF0010C0CEB5E0C1D
:10419000A3EB0C031841C00707D40133A2FB0302B1
:1041A00022F0010000EB52029B1ADBB281F8A5302D
:1041B00091F958000CF0AEFF2368002283F8952097
:1041C000FFF794FEBDE81040FEF7DCBA023B012B7E
:1041D00009D8114C236893F8950088B9FFF782F944
:1041E000052263681A7110BD0B4B1B68986E70B97D
:1041F000FFF718F9237A012BADD1074C2168D7E7D7
:104200000120FFF76FF9062263681A7110BD40F6AE
:104210003F113220FCF70EF9C80C0021ABAAAAAA64
:104220002DE9F047AE4F86B0D7F8008098F85730A8
:10423000A3B17E680446B379A3B12578012D1AD0C5
:10424000022D5CD055B998F85420910706D0002B68
:1042500040F08980337A002B40F08580032006B03F
:10426000BDE8F087F279002AE7D1327A002AF5D04A
:104270002578012DE4D198F820216378022A00F0F6
:10428000EA8003F01803182BE8D198F854305A0745
:1042900000F1E780934B93F900507F2D00F053819C
:1042A0007F221A700CF0FCFC00210090029508F1AE
:1042B00042030391FF22397B30460191214601F0F0
:1042C0006FFB0028CAD0A1690120FEF7C7FA0028B9
:1042D000C4D001233A6882F896306369002B3ED03F
:1042E0005978C1F3031182F8971059781B7801F0BF
:1042F0000F0143EA0123A2F898300220AFE798F8B3
:1043000054309B07AAD0637803F01803182BA5D16B
:10431000744B93F90090B9F17F0F00F014817F2264
:104320001A700CF0BDFC00220090CDF8089008F146
:104330004203039230463A7B21460192FF2201F06C
:104340002FFB00288AD0A1690120FEF787FA0028F8
:1043500084D03A6882F896506369002BC0D1FF235D
:1043600082F89730C9E7637813F0100FC3F3001693
:104370000CBF012208229A437FF470AF0023A26889
:104380008DF815308DF81630002A00F0A4800DF15C
:1043900017030DF116010DF115022046FEF7DCFBA7
:1043A00039689DF8153091F84190002B40F0C1809C
:1043B0004231A368A27C484613F046FF68B93B68C7
:1043C00093F85530023B012B3FF648AF9DF816306D
:1043D000002B3FF443AF4FF0FE09424B93F90080AE
:1043E000002E00F08180B8F17F0F00F0AC807F22BA
:1043F0001A70D7E9003603F142050CF051FCCDF8F4
:1044000008804A462B460025009030460395397BAC
:104410000191214601F0C4FA00283FF41FAFA169C1
:104420000120FEF71BFA00283FF418AF3B6883F821
:1044300096506269002A00F082805178C1F303111E
:1044400083F897105178127801F00F0142EA0122A7
:10445000A3F8982051E703F01903192B7FF4FEAE5F
:1044600013E763686BB9A368002B7FF4F7AEA36909
:104470009B781F2B24D898F84930002B7FF40AAF83
:10448000ECE608F15B0398F85A2008F1780198F8F7
:104490007E0013F0D9FE7E68D7F80080737998F813
:1044A0005620082B03D098F84E10994244D0012A88
:1044B000D9D0002A7FF4D2AE00283FF4CFAED2E7A5
:1044C00003F0E003402B7FF4E5AE98F84A30002B70
:1044D0007FF4E0AEC2E64FF0FF098DF817207CE7CD
:1044E000C80C002110000021B8F17F0F2BD07E688E
:1044F0007F221A703379032B04D03379062B14BF33
:10450000012503253B6803F1420A0CF0C9FB214653
:10451000009053464A463046CDE902853C7B0194E3
:1045200001F03EFA00283FF499AE786801F0ACF94A
:1045300094E649F0020950E7012A94D98EE6FF2259
:1045400083F89720D9E6FDF7E9FF00BF30B50546AF
:104550008BB005F0A9FC3E4B2C78024669462846F4
:1045600004F00F041A703B4D01F036FD072C2B6848
:104570003DD093F8542012F0060210D1214668462F
:10458000FFF74CF82B6893F82031042B1BD8022B33
:1045900054D903246B7BDBB920460BB030BD93F8B4
:1045A000A420134493F82421012A4CD00022214650
:1045B0006846FFF733F82B6893F82031012B10D0B1
:1045C000023B022BE5D941F236213220FBF732FFC4
:1045D0000DF020F90BF02CFE002320466B730BB07E
:1045E00030BD062C1BD018D90CF02AFFD1E793F868
:1045F0002011684601F028FD002221466846FFF799
:104600000DF82B6893F82031042BDCD8022B0CD941
:104610006846FFF705FE0446BCE7022CE4D82146B5
:104620006846FEF70DFB0446B4E7012BF0D0022BE1
:10463000C9D19DF80030012BABD1E9E7012BD0D0D7
:10464000022BA6D0BFE7962100200CF0B3FEADE709
:1046500010000021C80C00212DE9F04F93B0AD4CA3
:104660000D4608A901F0B8FC206808A99A3001F0AD
:104670006DFD23689DF8201093F89620914205D196
:10468000032D17D09DF82120120766D4606801F031
:104690003BF90125637B1BB9284613B0BDE8F08FB9
:1046A0000DF0B8F80BF0C4FD00232846637313B077
:1046B000BDE8F08F93F89720FF2AE3D108A82A4697
:1046C0000721FEF7ABFF6068C38813B9037A002B9C
:1046D000DDD000230A9F8DF81D308DF81E308DF837
:1046E0001F30002F4AD00DF11F030DF11D020DF1F7
:1046F0001E0108A8FEF730FA23689DF81D8093F884
:1047000041509DF8206045EA48059DF81E90012E15
:104710009DF81F70EDB238D0022E00F0AA80002E56
:10472000B4D1206890F854309E07B2D09DF8213063
:10473000990700F1D180FF2563681B7A33B1764B6E
:104740001B681BB10F9808B111999847294608A812
:10475000FEF7C6F8451CEDB29CE70D9993F897005B
:104760004A78B0EB121F91D1097802F00F02B3F82A
:10477000983041EA02229A4288D19FE79DF8206052
:10478000B946B846FF25012EC6D19DF821302068D4
:1047900003F0090290F89A10092A05D000293FF485
:1047A00078AF1B077FF575AF90F85430D4F804A0AC
:1047B0005A0713D59AF8073083B1002900F00D810C
:1047C0000A9B1BB1B8F1000F00F05B81A03013F021
:1047D000DDFA002840F0B681D4F804A09AF806303B
:1047E000002B3FF456AF276897F854309B073FF4EF
:1047F00050AF9DF8213013F0020300F0CA80B8F1E9
:10480000000F0AD10A9B07F142019DF8322097F868
:10481000410013F019FD00284ED0404B93F9009051
:10482000B9F17F0F00F09481D4F804807F221A70D0
:1048300098F80430032B00F0F28098F80430062B2F
:1048400008BF0326236803F142070CF029FA2A4621
:1048500000903B4608A94046CDE90296257B01958C
:1048600001F09EF800283FF414AF606801F00CF8E6
:104870000FE7266896F854309A073FF40AAFD4F849
:1048800004A09AF80620002A3FF403AF9DF82120E7
:1048900002F0090109297FF4FCAE13F0020B02F0CB
:1048A00002013DD0002900F0BC80B8F1000F40F0BB
:1048B0002181002F40F01281236893F85530023B8C
:1048C000012B3FF6E6AEB9F1000F3FF4E2AEFE2158
:1048D00008A8FDF787FFDCE6B8F1000F7FF42CAFE6
:1048E00000F142010A9B9DF8322090F8410013F03C
:1048F000ABFC00287FF420AF236893F85530023BCF
:10490000012B3FF6C6AEB9F1000F3FF4C2AEFE2553
:1049100012E700BFC80C0021700000211000002128
:10492000002900F0BE80B8F1000F0AD10A9B06F101
:1049300042019DF8322096F8410013F085FC0028D2
:10494000BAD0844B93F90080B8F17F0F00F000815A
:1049500067687F221A703B79032B06D03B79062BC0
:1049600014BF4FF0010B4FF0030B236803F1420615
:104970000CF096F92A460090334608A93846CDE94E
:10498000028B257B019501F00BF800283FF481AEE6
:104990006BE7704A92F900507F2D00F0D9807F219B
:1049A00011709AF80420032A00F096809AF80430D7
:1049B000062B08BF03260CF073F907F142030090A1
:1049C000CDE90256257BFF2208A95046019500F04B
:1049D000E7FF00283FF45DAE47E700F15B0390F886
:1049E0005A2000F1780190F87E0013F02DFC034668
:1049F000D4E9000A9AF8051090F85620082904D046
:104A000090F84EC08C4500F09F80012A3FF4D8AE4C
:104A1000002A7FF4E3AE002B3FF4E0AED0E60026A0
:104A200010E74C4B93F90080B8F17F0F00F09080B5
:104A30007F2203201A70FEF75DFB23680646D4F838
:104A4000049003F142070CF02BF92A46012500904F
:104A50003B46CDF8088008A903954846257B01957B
:104A600000F09EFF002E3FF411AE00283FF40EAE82
:104A70002068A03013F08AF900283FF4F6AE0B2529
:104A800008E6002F3FF4AAAE00F142019DF8322063
:104A900090F8410013F0D8FB00283FF49DAE206849
:104AA00094E62C4B93F900507F2D51D07F221A7041
:104AB0009AF80430032B05D09AF80430062B14BF63
:104AC0000121032105910CF0EBF8059906F1420351
:104AD0000090CDE9025175E71E466CE70A9B06F18E
:104AE00042019DF8322096F8410013F0ADFB0028FA
:104AF0003FF4E2AE174B93F90080B8F17F0F27D057
:104B00007F22002103201A70FEF7F4FA236806467C
:104B1000D4F8049003F142070CF0C2F82A460125AC
:104B200000903B46CDF8088008A903954846257BB0
:104B3000019500F035FF002E3FF44BAF00283FF405
:104B4000A8AD95E70C25A5E5012A7FF639AE45E627
:104B5000FDF7E4FC1000002110B5044605F0A4F9AF
:104B6000094A2378107003F00F03072B05D1204664
:104B70000121BDE81040FFF76FBD044B586800F0FD
:104B8000C3FE012010BD00BF10000021C80C002191
:104B900010B5044605F088F9094A2378107003F02F
:104BA0000F03072B05D120460321BDE81040FFF776
:104BB00053BD044B586800F0A7FE012010BD00BF94
:104BC00010000021C80C002190F83E00003818BFEA
:104BD00001207047007A003818BF0120704700BFDD
:104BE000036D10B583B10222FF21044642721A8878
:104BF0004FF6FF7380F8271003850649428114F0B1
:104C0000A6F80023236510BD4FF456713220FBF740
:104C100011FC00BF1D22000138B50121054600200E
:104C2000FCF7AAF820B3044601F0B8FC02E094F8BF
:104C300070301BB194F87030012BF8D13F22002165
:104C4000204610F0DFFE002340F20111072284F815
:104C5000543084F8A530A4F84C1084F8585084F8E7
:104C60004B20636684F89430C4F8903084F8A63002
:104C700001210846FCF780F8044618B301F08EFCC9
:104C800002E094F870301BB194F87030012BF8D129
:104C90003F220021204610F0B5FE002340F2011112
:104CA000072284F8543084F8A530A4F84C1084F816
:104CB000585084F84B20636684F89430C4F89030E0
:104CC00084F8A630BDE8384000F046BDF8B502468D
:104CD0001C4D0E4600200121AA60FCF711F830B3EC
:104CE0004FF494720021044610F08CFE0121084616
:104CF000FCF706F86F69054680B14FF49472002105
:104D000010F080FEC7B13046FFF786FF204601F065
:104D100027FC2846BDE8F84001F022BC67B13046C8
:104D2000FFF77AFF2046BDE8F84001F019BC40F6D5
:104D300083013220FBF77EFB40F68D013220FBF72A
:104D400079FB00BFC80C0021014B024A5A61704731
:104D5000C80C002168010021014B024A5A617047CA
:104D6000C80C002180010021036810B54BB1074A2F
:104D700003F16C045169C2E900340B68BDE81040CE
:104D8000184740F66E113220FBF754FBC80C002187
:104D900010B50F4C606800F0B7FD637B8BB92068DD
:104DA00001216268002311710246A0F821316C30A4
:104DB00082F8233100F030FD2068BDE8104002F099
:104DC0005BBB0CF027FD0BF033FA00236373E6E7BF
:104DD000C80C002180F84B10704700BF11F0010390
:104DE0001FD04FF0010C0222634680F824C111F05D
:104DF000020F0ED000EB030C490700B54FF0020E76
:104E00008CF824E103D51044042380F824315DF8A4
:104E100004FB4A0704D51844042380F82431704762
:104E200070470122E3E700BF80F85710704700BFCA
:104E300038B590F840C0ACF1020EBEF1010F98BF3A
:104E400000290CBF0124002408D00CF0FD0000381C
:104E5000BDE8384018BF012004F018BC02F0FD0284
:104E600005461946101E18BF012013F027FA08281E
:104E700001D0204638BD95F840C0E6E790F84000E4
:104E800000F0FD00003818BF012004F0FFBB00BF98
:104E900090F8A6303BBB10B5044603F0FF0094F831
:104EA0005430022B07D0012B08BF04290CBF01206E
:104EB000002002D010BD0429FCD1D4F81031A3B9D0
:104EC000236DBBB106F0A2FB216D04F1E80001F0F7
:104ED00097FC06F0A1FB042384F8A730FF2384F895
:104EE000A630012010BD0020704740F6ED113220A1
:104EF000FBF7A0FA40F6EE113220FBF79BFA00BF59
:104F000080F84010704700BF38B5044690F8400064
:104F100000F0FD0004F14201003818BF012084F8C0
:104F2000410004F099FB94F84030023BDBB2012BC6
:104F300094BF0123002384F8483000D938BD04F021
:104F4000E9FD05460EF0F6FC094BE5FB030194F87C
:104F50004830C4E92001002BF0D0002004F09CFE72
:104F60000028EBD140F616213220FBF763FA00BF90
:104F700040420F00B1F1000C4FF0080110B504469B
:104F80000CBF0120002084F856C084F84D0084F83E
:104F90004E1009D102F0FD021946101E18BF012063
:104FA00013F08CF984F84E0010BD00BF08B5A2B113
:104FB00080F85A10D2F800C0036DC0F85BC090F8BA
:104FC00041109288A0F85F205972D0F84220C3F8AF
:104FD0000A20B0F84620DA8108BD40F6342132209C
:104FE000FBF728FA80F84910704700BF80F84A1094
:104FF000704700BFF0B5D0F8C8409DF814E0944267
:1050000003D190F840208A4201D00020F0BD1EF06C
:10501000020190F81D5123D00024A44621462246C7
:1050200011E0314300EB820253F82C600CF10107D0
:105030000134D2F8CC205FFA87FC7632B242E4D158
:10504000E2B2AA4226D8861896F82461F71E012FEC
:10505000E7D80CF1010C41F004015FFA8CFCE1E7A8
:105060000E460A468418013694F82441E71E012FA3
:1050700053F8227088BF214300EB820498BF41F0AF
:105080000401F2B2D4F8CC4004F1760C6745BCD1EF
:10509000AA42E7D90EF00500401AB0FA80F04009A4
:1050A000F0BD00BF90F854305A070ED413F003033C
:1050B00001D11846704790F8550000F0FD00A0F1AE
:1050C0000100B0FA80F04009704790F85600A0F156
:1050D0000100B0FA80F04009704700BF012938B5DF
:1050E000044610D094F8543004F16C059B071AD193
:1050F000284600F091FB0023A4F8213184F82331E5
:1051000084F8703038BD0A4D6B7B002BEAD00CF070
:1051100081FB0BF08DF800236B7304F16C0594F8A0
:1051200054309B07E4D0284600F0EEFBE0E700BFD8
:10513000C80C0021A03012F032BE00BF0149363049
:1051400013F008BEF921000110B50121044600202A
:10515000FBF712FE80B36278034680F85420217872
:1051600011F0010223D1012011F0020F05D003EB51
:10517000020C024602208CF82401490703D51A4488
:10518000042182F82411A27883F84020E17801F00C
:10519000FD0283F85510B2FA82F2520983F84C20CE
:1051A000227983F84B20627983F8572010BD0122C1
:1051B000022083F82421D7E740F6CD213220FBF7E7
:1051C00039F900BF10B504466C3000F09DFB002398
:1051D000A4F8213184F8233184F8703010BD00BF69
:1051E00008B501210020FBF7C7FD28B190F8940015
:1051F000003818BF012008BD40F64C313220FBF7C3
:1052000019F900BF2DE9F04705468CB00E46002085
:105210000121FBF7B1FD002800F075820446A8309B
:1052200001F0D8F9002846D094F85430042B42D02D
:10523000AF6A002F00F05281BD4B9F4263D0043B08
:105240009F4260D003F0A6FF07F13B09804602A908
:10525000484600F0C1FEEB7AB8F1000F00F0BC80C8
:10526000DC0606F10D0100F1F481002F00F0508200
:105270009DF80830022B00F04B8295F83230E52281
:10528000484613F004FC95F832300446484623445F
:1052900085F8323013F0F3FB95F83290A9EB000952
:1052A000B9FA89F94FEA5919B8F1000F31D104F16F
:1052B0001803DBB29FE02046FFF786FC0028B7D139
:1052C0009C4C04F1080604F10C070023AA6A002A8A
:1052D00000F03481A96A0A68B142AA620B704B706F
:1052E0008B70CB70F2D0B942F0D0206811F08AFBFD
:1052F000231DD3E84F3F0133211DDBB2C1E8423FFC
:10530000002AF5D1E1E703F045FF814600286ED081
:105310000024EA7AD10640F1FB815207AB7A697B1F
:1053200003D5EA7EFE2A00F0748104F10A02F370CC
:10533000717102FB03F30322023332707370D5F8EC
:105340000E30C6F806306B8A3473344473812B7E7A
:105350006373EB7A13F0080000F00481754C0423AA
:1053600004F108083371474579D13379022262F399
:105370004613AA6A33716AB1EFF3108272B6AB6A50
:105380001968A962002A00F0C58000221A705A70BC
:105390009A70DA70A5F10801206811F033FB231D23
:1053A000D3E84F3F0133211DDBB2C1E8423F002A61
:1053B000F5D102274FF004088DF804808DF80570B0
:1053C0009DF8042000209DF8053062F3070063F388
:1053D0000F200CB0BDE8F087D80606F11C0100F1E3
:1053E000418127B19DF80830022B7FF446AF182386
:1053F00000244FF0010904223270AA7A02FB03F361
:10540000F27002337370D5F80B20D5F80F30D5F851
:105410001300D5F817107260B360F0603161D5F8F1
:105420001B20D5F81F307261B36195F8148095F890
:1054300015A003F0EDFE08F1FF338A05DBB253D56A
:10544000032B00F269813C4AD35C7373BAF1000FFD
:1054500062D1F476374C04F10808474585D004F151
:105460000C0A574500F08780002F00F0AC80B9F19E
:10547000000F2AD0AB6A63B1EFF3108272B6AB6A49
:105480001968A96202B962B600221A705A709A703D
:10549000DA703946206811F0B5FA231DD3E84F3F82
:1054A0000133211DDBB2C1E8423F002AF5D1AB6ACE
:1054B00085F83220434500F0DF80534500F000813D
:1054C0009DF80830022B00F0BD803379012262F391
:1054D0004613337101274FF004086DE703F05AFEBD
:1054E00005F133098046B2E6032B00F21E81124A11
:1054F00013441B797373BAF1000FAAD00AF1FF3A73
:105500005FFA8AFABAF1030F00F20F81524413795D
:10551000B3739EE762B638E70AF1FF3A5FFA8AFA98
:10552000BAF1030F00F2F88012F80A30B37390E773
:10553000EC0C0021E00C002150370201A5F108011C
:10554000206811F05FFA231DD3E84F3F0133211D7E
:10555000DBB2C1E8423F002AF5D14FF40073ADF849
:1055600004302DE703F00301032949D0580749D53A
:10557000012333716EE7AB6A63B1EFF3108272B649
:10558000AB6A1968A96202B962B600221A705A7031
:105590009A70DA706B7D83BB32794FF0040863F345
:1055A00046123271A5F10801206811F02BFA231D73
:1055B000D3E84F3F0133211DDBB2C1E8423F002A4F
:1055C000F5D10227F8E695F80B8018F010083FF4A3
:1055D000F3AE3379A5F10801206867F34613337100
:1055E00011F010FA231DD3E84F3F0133211DDBB228
:1055F000C1E8423F002AF5D1DBE64FF00008D1E7D1
:10560000307127E7022922D0002940F08A803271C8
:1056100020E7F3701B017171023373701123337033
:1056200001233371D5F80E30C6F806306B8A327319
:105630007381EB69C6F80D302B8CA6F811302B7EE8
:10564000F37407E7337923F06803337142E731716C
:1056500000E79DF8184008460599C146224610F01B
:105660003BFA56E69DF81840084605994FF00109A7
:10567000224610F031FA1AE63379022262F3461319
:10568000AA6A337162B1EFF3108272B6AB6A19681D
:10569000A96202B962B600221A705A709A70DA7062
:1056A000A5F10801206811F0ADF9231DD3E84F3FA3
:1056B0000133211DDBB2C1E8423F002AF5D178E673
:1056C000337962F34613AA6A337162B1EFF3108241
:1056D00072B6AB6A1968A96202B962B600221A7082
:1056E0005A709A70DA70A5F10801206811F08AF9F1
:1056F000231DD3E84F3F0133211DDBB2C1E8423FF8
:10570000002AF5D155E64FF4EF713320FAF792FEF7
:105710005B213320FAF78EFE4FF4E8713320FAF75D
:1057200089FEA2213320FAF785FE4FF4617106202D
:10573000FAF780FE343270B5044692B21E460D462A
:1057400011F028F924B1034B1C601D745E741D71A7
:1057500070BD00BFE00C002110B5034C206811F0B3
:105760003BF9237C237110BDE00C0021014B587CD8
:10577000704700BFE00C002138B5154C206811F0CF
:1057800031F900B30546231DD3E84F3F013B221DED
:10579000DBB2C2E8413F0029F5D105F1080334220C
:1057A0000124184610F02EF9EA7C0346FF2147F643
:1057B000FF7064F346126975E883184685F8231074
:1057C000EA74ED6238BD40F255113320FAF732FE2B
:1057D000E00C00213330704738B50446406A08B108
:1057E0003B3038BD0B4D286811F0FCF8606260B1A9
:1057F0002B1DD3E84F3F013B291DDBB2C1E8423FDF
:10580000002AF5D1606A3B3038BD4FF4B7713320C0
:10581000FAF710FEE00C002138B503684BB39A6A22
:1058200052BB596A054629B301F10800154C834261
:10583000206808BF2A6011F0E5F8231DD3E84F3F28
:105840000133211DDBB2C1E8423F002AF5D12B68AC
:105850007BB1A3F10801206811F0D4F8231DD3E82F
:105860004F3F0133211DDBB2C1E8423F002AF5D191
:105870002A6038BD034CECE740F28B113320FAF775
:10588000D9FD00BFE00C002170B505680646F5B1F2
:105890001B49284613F067FA1A4C0023E360EFF324
:1058A000108272B6AB6A23B3E96A04F10C030B6091
:1058B000EB6202B962B63368596A29B101F1080591
:1058C000AB421AD100236B620023336070BD696A5A
:1058D0000029F9D00B4C206811F094F8231DD3E86F
:1058E0004F3F0133211DDBB2C1E8423F002AF5D111
:1058F000E8E704F10C03AB62DAE71D46EBE700BF13
:1059000005520001E00C002170B50668002E3CD065
:10591000716A0546002939D001F108031E4C9E42E8
:105920000DD0206811F06EF8231DD3E84F3F0133EE
:10593000211DDBB2C1E8423F002AF5D12B680022CD
:1059400072625A7D8AB10022A260EFF3108172B6B2
:105950009A6AF2B1D86A114A0260DA6201B962B693
:105960002846BDE87040FFF78FBFA3F1080120680B
:1059700011F048F8231DD3E84F3F0133211DDBB25E
:10598000C1E8423F002AF5D12A6070BD3346024C7F
:10599000D7E7024A9A62E0E7E00C0021E80C002118
:1059A0002DE9F04704680D4698469DF820109DF8B3
:1059B00024309DF928C09DF82C90002C00F00A811D
:1059C000DFF840A2174606469AF80420002A7FD046
:1059D000626A002A00F0088182F81190EA684AB1F0
:1059E00095F810E0228E724440F2726E724500F318
:1059F000BA802286012284F818C0A272B9F1000F81
:105A000072D061756A691AB15278C2F30312A27535
:105A1000EA6912B15288A4F819202A78E17AA2F131
:105A20000100B0FA80F0400960F30001C8B2E172F1
:105A300011F0020140F08E80022A00F0BE80E07A70
:105A400061F34100C0F34001E072002A14BF00215D
:105A500001F00101E27A61F3C302E272AA68002A4E
:105A600000F08B80E17A41F00401E172296A00299B
:105A70003CD091F90010E1756968002939D0082BF4
:105A800004F10E0200F08F80184604F10D0104F0BD
:105A900047F8002800F0B180637B43F00203637392
:105AA000AA6832BBAA69B9F1000F30D13AB1937834
:105AB000527803F01F0352EA032200F08780636AE2
:105AC000002B00F09580002301206362BDE8F08781
:105AD000B9F1020F5BD03FD8FFF79EFE3368002B71
